:020000040800F2
:10000000C818002439030008FB56000835510008C1
:10001000F95600082F050008A36900080000000039
:100020000000000000000000000000004959000826
:10003000090A000800000000FD5600084B5900089E
:100040005303000853030008530300085303000838
:100050005303000853030008530300085303000828
:100060005303000853030008210A00083105000863
:100070003D05000849050008550500086105000810
:100080006D050008530300085303000853030008DC
:10009000530300085303000853030008270A00080D
:1000A00053030008530300085303000853030008D8
:1000B00053030008530300085303000853030008C8
:1000C00053030008530300085303000853030008B8
:1000D00053030008530300085303000853030008A8
:1000E0000B0A000853030008000000005303000837
:1000F0005303000853030008530300085303000888
:100100005303000853030008530300085303000877
:1001100053030008555F0008D55A0008E15A00084B
:100120005303000853030008530300085303000857
:100130005303000853030008530300085303000847
:1001400000000000000000000000000000000000AF
:100150005303000853030008530300085303000827
:100160005303000853030008530300085303000817
:100170005303000853030008530300085303000807
:100180005303000853030008316000083D60000875
:1001900053030008530300085303000853030008E7
:1001A00053030008530300085303000853030008D7
:1001B00053030008530300085303000853030008C7
:1001C00053030008530300085303000853030008B7
:1001D00053030008530300085303000853030008A7
:1001E0005303000853030008530300085303000897
:1001F0005303000853030008530300085303000887
:100200005303000853030008530300085303000876
:100210005303000853030008530300085303000866
:1002200053030008530300085303000800000000B4
:1002300053030008530300080000000053030008A4
:100240005303000853030008530300085303000836
:100250005303000853030008530300085303000826
:100260005303000853030008530300085303000816
:100270005303000853030008530300080000000064
:100280005303000853030008530300080000000054
:10029000000000005303000800F002F800F03CF8F2
:1002A0000AA090E8000C82448344AAF10107DA45D1
:1002B00001D100F031F8AFF2090EBAE80F0013F0E7
:1002C000010F18BFFB1A43F001031847486E0000E6
:1002D000686E0000103A24BF78C878C1FAD8520777
:1002E00024BF30C830C144BF04680C6070470000B0
:1002F0000023002400250026103A28BF78C1FBD82F
:10030000520728BF30C148BF0B6070471FB506F0C9
:10031000DBFE1FBD10B510BD00F0D4F81146FFF78D
:10032000F5FF06F079FC00F0F2F803B4FFF7F2FFF6
:1003300003BC00F0F5F80000094880470948004771
:10034000FEE7FEE7FEE7FEE7FEE7FEE7FEE7FEE785
:10035000FEE7FEE704480549054A064B70470000E2
:10036000F959000899020008C8120024C81800248E
:10037000C8140024C814002453EA020C00F0698059
:100380002DE9F04B4FF00006002B1FBFB3FA83F5A9
:1003900003FA05F424FA05F65E4012BF1643B2FADA
:1003A00082F502FA05F4C5F120051EBF22FA05FC0C
:1003B00044EA0C04203556EA044C4FEA144418BFB2
:1003C000641C4FF000084FF00009904271EB030CE1
:1003D00039D3002919BFB1FA81F701FA07F6B0FA4B
:1003E00080F700FA07F6C7F120071EBF20FA07FCC6
:1003F00046EA0C062037B6FBF4FCA7EB0507103FD6
:1004000007F01F0BCBF120060CFA0BFB2CFA06F6BB
:1004100044BFB3460026202FA4BF5E464FF0000B1A
:100420005BEA060C08BF4FF0010B19EB0B09ABFBA5
:10043000027C48EB0608C01B06FB02CC0BFB03CC7E
:1004400071EB0C01C1E70B46024641464846BDE848
:10045000F08B13B54FF000004FF00001AFF30080B8
:10046000BDE81C4070474FF0000200B513469446AB
:100470009646203922BFA0E80C50A0E80C50B1F1FC
:100480002001BFF4F7AF090728BFA0E80C5048BF10
:100490000CC05DF804EB890028BF40F8042B08BFAE
:1004A000704748BF20F8022B11F0804F18BF00F8AA
:1004B000012B704770477047704700000048704735
:1004C000681200247546FFF7F9FFAE46050069463D
:1004D000534620F00700854618B020B5FFF73AFFD5
:1004E000BDE820404FF000064FF000074FF0000835
:1004F0004FF0000B21F00701AC46ACE8C009ACE8B6
:10050000C009ACE8C009ACE8C0098D46704710B519
:100510000446AFF300802046BDE81040FFF705BF5A
:1005200001491820ABBEFEE7260002007047FEE737
:10053000014800F0BDBD000058060024014800F04D
:10054000B7BD0000D0060024014800F0B1BD000096
:1005500068050024014800F0ABBD0000E005002460
:10056000014800F0A5BD000078040024014800F017
:100570009FBD0000F004002410B52C4A0168914290
:100580003AD02A4A1832914236D0284A3032914223
:1005900032D0264A483291422ED0244A60329142CB
:1005A0002AD0224A7832914226D0204A9032914273
:1005B00022D01E4AA83291421ED01D4A91421BD021
:1005C0001B4A1832914217D0194A3032914213D047
:1005D000174A483291420FD0154A603291420BD0EF
:1005E000134A7832914207D0114A9032914203D097
:1005F0000F4AA832914214D1CAB2103A1823B2FB62
:10060000F3F20C4C02F00703E35CC365032A04D940
:100610006FF30901091D816506E06FF3090181652A
:1006200002E021F0FF018165806D10BD10000240E5
:1006300010040240D270000810B501680123224C5A
:10064000CAB2A1421BD0204C1434A14217D01E4C78
:100650002834A14213D01C4C3C34A1420FD01A4C78
:100660005034A1420BD0184C6434A14207D0164C30
:100670007834A14203D0144C8C34A1420FD1083AF3
:100680001421B2FBF1F1114A02EB810202660F4A1A
:100690008032426601F01F018B40836610BD103A24
:1006A0001824B2FBF4F20A4C2144A82900D80832DD
:1006B000084901EB8201016606498031416602F07A
:1006C0001F018B40836610BD085402580058025821
:1006D000F0FBFDBF000802400279521E072A31D804
:1006E000194B016899421BD0174B1433994217D00C
:1006F000154B2833994213D0134B3C3399420FD0FA
:10070000114B503399420BD00F4B6433994207D0B1
:100710000D4B7833994203D00B4B8C33994207D160
:100720000A4901EB8201C16608494031016706E0D0
:10073000074901EB8201C16605494031016701218A
:100740009140416770470000085402580059025810
:1007500000090240014610B500208B694FF0C074BB
:100760008A6A002B0ED0B3F5005F1AD062B3012A5B
:100770002AD0022A28D0032A03D1C96AC90100D588
:10078000012010BD1AB1012A06D0022AF9D1C96A86
:10079000C901F6D5012010BDC96AA142FBD10120D3
:1007A00010BD52B1012A0AD0022A06D0032AF7D17D
:1007B000C96AA142F4D1012010BD012010BDC96A4F
:1007C000C901FBD5012010BD012010BD2DE9F04F5E
:1007D000856D8A4E894FDFF824C2A836DFF81C8267
:1007E000DFF818920CF1180CDFF810A208F13008AD
:1007F000DFF808B209F1480904680AF1600A0BF150
:10080000780BBC426DD064456BD0444569D04C45F3
:1008100067D0544565D05C4563D0DFF8E0E10EF168
:10082000900E74455DD0B4425BD0DFF8D4E17445DE
:1008300057D0DFF8CCE10EF1180E744551D0DFF837
:10084000C0E10EF1300E74454BD0DFF8B4E10EF18B
:10085000480E744545D0DFF8A8E10EF1600E7445EE
:100860003FD0DFF89CE10EF1780E744539D0DFF807
:1008700090E10EF1900E744533D0DFF884E10EF173
:10088000A80E74452DD0DFF87CE1744529D0DFF83F
:1008900074E10EF1140E744523D0DFF868E10EF117
:1008A000280E74451DD0DFF85CE10EF13C0E744556
:1008B00017D0DFF850E10EF1500E744511D0DFF87B
:1008C00044E10EF1640E74450BD0DFF838E10EF10F
:1008D000780E744505D0DFF82CE10EF18C0E7445CE
:1008E00009D1D0E919E4CEF80440C46E1CB1D0E9B6
:1008F0001CE4CEF804400468BC422ED064452CD0E1
:1009000044452AD04C4528D0544526D05C4524D0B7
:100910003A4F9037BC4220D0B4421ED0384EB44239
:100920001BD0374E1836B44217D0354E3036B4424D
:1009300013D0334E4836B4420FD0314E6036B442F5
:100940000BD02F4E7836B44207D02D4E9036B4429D
:1009500003D02B4EA836B4421BD190F85C4004F073
:100960001F063F24B440AC600468256825F4802548
:100970002560046863608368402B05D00368996034
:100980000068C260BDE8F08F03689A600068C160CB
:10099000F8E71C4EB4421BD01A4E1436B44217D09E
:1009A000184E2836B44213D0164E3C36B4420FD0FF
:1009B000144E5036B4420BD0124E6436B44207D0B7
:1009C000104E7836B44203D00E4E8C36B442D9D194
:1009D00090F85C4004F01F060124B4406C60046889
:1009E00063608368402B04D0036899600068C2602C
:1009F000C8E703689A600068C160C3E7100002405E
:100A00001004024008540258704710B54FF480504B
:100A100001F0D1FABDE810404FF4005001F0CBBA1C
:100A2000102001F0C8BA10B5202001F0C4FABDE8CA
:100A30001040402001F0BFBAF0B404ADE0CD0D4C41
:100A40002070FD206070A170100AE0702271637147
:100A5000280EA071280CE071280A20726572A67217
:100A6000E7726B2020732146F0BC03480D2204F08E
:100A70000DBB0000700F0024C802002472B6FEE710
:100A80002DE9F84F044601F0C9FB00905CB194F8E1
:100A90003500022809D080206065002084F83400E9
:100AA0000120BDE8F88F0120FBE7D14ED04FD0499F
:100AB0001836DFF83C833037DFF83493DFF830A3A3
:100AC00008F14808DFF828B309F1600920680AF145
:100AD000780A0BF1900B88422ED0B0422CD0B8424D
:100AE0002AD0404528D0484526D0504524D05845E6
:100AF00022D0BF4AA83290421ED0BE4A90421BD09C
:100B0000BC4A1832904217D0BA4A3032904213D0C1
:100B1000B84A483290420FD0B64A603290420BD069
:100B2000B44A7832904207D0B24A9032904203D011
:100B3000B04AA83290420AD1026822F01E02026036
:100B40002068426922F080024261256804E0026860
:100B500022F00E0202602568206888424DD0B04223
:100B60004BD0B84249D0404547D0484545D0504584
:100B700043D0584541D09E4AA83290423DD09D4A2C
:100B800090423AD09B4A1832904236D0994A30323D
:100B9000904232D0974A483290422ED0954A6032E5
:100BA00090422AD0934A7832904226D0914A90328D
:100BB000904222D08F4AA83290421ED08E4A904254
:100BC0001BD08D4A1432904217D08B4A2832904263
:100BD00013D0894A3C3290420FD0874A503290421B
:100BE0000BD0854A6432904207D0834A78329042D3
:100BF00003D0814A8C32904204D1206E026822F4E4
:100C0000807202607A49206888422ED0B0422CD08F
:100C1000B8422AD0404528D0484526D0504524D057
:100C2000584522D07249A83188421ED07149884265
:100C30001BD070491831884217D06E493031884234
:100C400013D06C49483188420FD06A4960318842DC
:100C50000BD068497831884207D066499031884284
:100C600003D06449A831884204D1016821F0010110
:100C7000016013E0016821F0010101600EE001F064
:100C8000CDFA0099401A052808D920203434206272
:100C90000320607000202070012002E72868C00750
:100CA000EDD1534A0121206890422ED0B0422CD081
:100CB000B8422AD0404528D0484526D0504524D0B7
:100CC000584522D04A4BA83398421ED0494B9842EF
:100CD0001BD0484B1833984217D0464B30339842BC
:100CE00013D0444B483398420FD0424B6033984264
:100CF0000BD0404B7833984207D03E4B903398420C
:100D000003D03C4BA833984208D1A06D94F85C30D6
:100D100003F01F053F23AB40836007E0A06D94F80C
:100D20005C3003F01F0301FA03F343602068904234
:100D30004DD0B0424BD0B84249D0404547D048454D
:100D400045D0504543D0584541D0294AA832904219
:100D50003DD0284A90423AD0264A1832904236D0A6
:100D6000244A3032904232D0224A483290422ED029
:100D7000204A603290422AD01E4A7832904226D0D1
:100D80001C4A9032904222D01A4AA83290421ED079
:100D9000194A90421BD0184A1432904217D0164A72
:100DA0002832904213D0144A3C3290420FD0124A5B
:100DB000503290420BD0104A6432904207D00E4A13
:100DC0007832904203D00C4A8C3290420BD1D4E955
:100DD00019205060E06E30B1026822F48072026027
:100DE000D4E91C205060343461700020207058E633
:100DF0001000024010040240085402582DE9F05F30
:100E0000002808D090F83510022906D080214165CD
:100E10000120BDE8F09F0120FBE7A14AA04BA04CB8
:100E200018329F4D30339E4E4834DFF874B260352F
:100E3000DFF870C27836DFF86C82DFF868920CF168
:100E4000300CDFF860A208F16008016809F1780948
:100E5000944F0AF1900A594531D091422FD09942CE
:100E60002DD0A1422BD0A94229D0B14227D0DFF802
:100E700030E20EF1900E714521D0DFF824E20EF140
:100E8000A80E71451BD0DFF81CE2AEF1180E7145BB
:100E900015D0B94213D0DFF80CE20EF1180E7145EF
:100EA0000DD061450BD0DFF8FCE10EF1480E714525
:100EB00005D0414503D0494501D0514537D14FF0C8
:100EC000040E80F835E0594527D0914225D099424B
:100ED00023D0A14221D0A9421FD0B1421DD07048D9
:100EE0009030814219D06E48A830814215D06D48AB
:100EF0001838814211D0B9420FD06A481830814267
:100F00000BD0614509D067484830814205D0414542
:100F100003D0494501D0514504D1086820F00100B3
:100F20000860BAE0086820F001000860B5E0D1F878
:100F300000E02EF00E0EC1F800E00168DE465945D3
:100F400031D091422FD099422DD0A1422BD0A9422D
:100F500029D0B14227D0DFF848B10BF1900B5945A9
:100F600021D0DFF83CB10BF1A80B59451BD0DFF8BD
:100F700034B1ABF1180B594515D0B94213D0DFF895
:100F800024B10BF1180B59450DD061450BD0DFF89A
:100F900014B10BF1480B594505D0414503D04945E3
:100FA00001D0514506D1D1F800B02BF0010BC1F8AA
:100FB00000B005E0D1F800B02BF0010BC1F800B093
:100FC00001684FF0010B714546D0914244D09942DF
:100FD00042D0A14240D0A9423ED0B1423CD0304A9A
:100FE0009032914238D02E4AA832914234D02D4AC4
:100FF000183A914230D0B9422ED02A4A1832914242
:101000002AD0614528D0274A4832914224D0414510
:1010100022D0494520D051451ED0234A91421BD0B1
:10102000214A1432914217D01F4A2832914213D0DC
:101030001D4A3C3291420FD01B4A503291420BD094
:10104000194A6432914207D0174A7832914203D04C
:10105000154A8C32914218D1016E0A6822F48072CE
:101060000A60816D90F85C2002F01F020BFA02F218
:101070004A60D0E919215160C16E31B10A6822F489
:1010800080720A60D0E91C21516080F835B00021DF
:1010900080F83410016D01B188470020B9E60000E6
:1010A000100002402804024008540258406D704766
:1010B0002DE9FF5F0446002001904FF41651FD48D2
:1010C0000068B0FBF1F00090A56D2E682968FA4F1A
:1010D000DFF8E4B3DFF8E083DFF8DC930BF1180B03
:1010E000DFF8D4A308F13008206809F148090AF1B3
:1010F000600AB8423BD05A46904238D0404536D07C
:10110000484534D0504532D0EB4A783290422ED008
:10111000E94A903290422AD0E74AA832904226D03B
:10112000E64A904223D0E54A183290421FD0E34B62
:10113000303398421BD0E14B4833984217D0DFF848
:101140007CC30CF1600C604511D0DFF870C30CF16A
:10115000780C60450BD0DFF864C30CF1900C60454F
:1011600005D0DFF858E30EF1A80E70457ED194F853
:101170005C10082301F01F0103FA01F232424BD048
:10118000B84232D0584530D040452ED048452CD0BA
:1011900050452AD0C8497831884226D0C649903176
:1011A000884222D0C449A83188421ED0C34988420F
:1011B0001BD0C2491831884217D0C049303188420B
:1011C00013D0BE49483188420FD0BC4960318842B3
:1011D0000BD0BA497831884207D0B849903188425B
:1011E00003D0B649A831884203D1016801F0040157
:1011F00002E0016801F0080171B1016821F0040109
:10120000016094F85C0000F01F0003FA00F2AA608D
:10121000606D40F00100606594F85C00012100F011
:101220001F008140314240D02068B84234D0584538
:1012300032D0404530D048452ED050452CD09E4A23
:101240007832904228D09C4A9032904224D09A4AD8
:10125000A832904220D0994A90421DD0974A183225
:10126000904219D0954A3032904200E0D2E113D03A
:10127000924A483290420FD0904A603290420BD04E
:101280008E4A7832904207D08C4A9032904203D0F6
:101290008A4AA83290427DD1406910F0800F04D074
:1012A000A960606D40F00200606594F85C00042164
:1012B00000F01F00814031423ED02068B84232D059
:1012C000584530D040452ED048452CD050452AD0E6
:1012D000794A7832904226D0774A9032904222D092
:1012E000754AA83290421ED0744A90421BD0734A6D
:1012F0001832904217D0714A3032904213D06F4A60
:10130000483290420FD06D4A603290420BD06B4A07
:101310007832904207D0694A9032904203D0674AAF
:10132000A83290424ED1006810F0020F04D0A9609C
:10133000606D40F00400606594F85C00102100F0DE
:101340001F008140314260D02068B84234D05845F7
:1013500032D0404530D048452ED050452CD0564A4A
:101360007832904228D0544A9032904224D0524A47
:10137000A832904220D0514A90421DD04F4A183294
:10138000904219D04D4A3032904215D04B4A4832E3
:10139000904200E014E00FD0484A603290420BD0F7
:1013A000464A7832904207D0444A9032904203D065
:1013B000424AA832904207D1006800F0080006E0D7
:1013C000006872E70068B7E7006800F0040058B1F1
:1013D000A9602068016849030CD50068000304D4A3
:1013E000216C09B1204688470FE0A16C69B1204605
:1013F00088470AE00168C90503D4016821F00801A3
:101400000160216C09B12046884794F85C002021D6
:1014100000F01F00814031427BD02068B84232D0BA
:10142000584530D040452ED048452CD050452AD084
:10143000214A7832904226D01F4A9032904222D0E0
:101440001D4AA83290421ED01C4A90421BD01B4A13
:101450001832904217D0194A3032904213D0174AAE
:10146000483290420FD0154A603290420BD0134A56
:101470007832904207D0114A9032904203D00F4AFE
:10148000A832904203D1006800F0100002E000682A
:1014900000F00200E8B3A96094F83500042812D0E7
:1014A0002068016849033DD50068000335D4616CAC
:1014B00079B305E04400002410000240100402400B
:1014C000204688473FE02068016821F0160101604E
:1014D0002068416921F080014161206C08B9A06C4D
:1014E00020B12068016821F00801016094F85C00D7
:1014F00000F01F013F208840A860012084F83500DB
:10150000002084F83400216D002974D004B02046F6
:1015100000E018E0BDE8F05F0847E16B99B12046B4
:10152000884710E00168C90509D4016821F010015D
:101530000160012084F83500002084F83400E16B5C
:1015400009B120468847606D002854D0606DC007FF
:1015500058D0042084F835002068B84231D058456E
:101560002FD040452DD048452BD0504529D0B749E4
:10157000884226D0B5491831884222D0B34930314B
:1015800088421ED0B24988421BD0B14918318842E6
:1015900017D0AF493031884213D0AD494831884225
:1015A0000FD0AB49603188420BD0A94978318842CD
:1015B00007D0A7499031884203D0A549A831884275
:1015C00004D1016821F00101016003E0016821F00C
:1015D0000101016021680198009A401C019090422D
:1015E00002D80868C007F6D10868C00704D00320F5
:1015F00084F8350003E087E0012084F835000020FE
:1016000084F83400E16C00297ED004B02046BDE8A7
:10161000F05F08478F4EB0421BD08E4E1436B0425A
:1016200017D08C4E2836B04213D08A4E3C36B0428A
:101630000FD0884E5036B0420BD0864E6436B04242
:1016400007D0844E7836B04203D0824E8C36B042FA
:101650005AD106684FF0040E94F85CB00BF01F0BE3
:101660000EFA0BFE1EEA010FCDF80CE05ED05FEA29
:10167000467E5BD503986860300411D5F00307D42B
:10168000A16C002940D004B02046BDE8F05F0847B7
:10169000216C002938D004B02046BDE8F05F08472F
:1016A000B0063BD42068B8422DD0684960398842E2
:1016B00029D0404527D0484525D0504523D06349FF
:1016C000884220D06149183188421CD05F493031AE
:1016D000884218D05E49884215D0904213D05C49A8
:1016E000303188420FD098420DD05949603188423C
:1016F00009D057497831884205D0604503D0544914
:10170000A831884206D100E07CE0016821F00801A0
:10171000016003E0016821F004010160216C0029EF
:1017200070D004B02046BDE8F05F08474FF0020ECD
:101730000EFA0BFE1EEA010FCDF808E063D05FEA57
:10174000867E60D502986860300411D5F00307D416
:10175000616C002978D004B02046BDE8F05F0847EE
:10176000E16B002970D004B02046BDE8F05F084767
:10177000B0063FD42068B8422DD034496039884241
:1017800029D0404527D0484525D0504523D02F4962
:10179000884220D02D49183188421CD02B49303145
:1017A000884218D02A49884215D0904213D028493F
:1017B000303188420FD098420DD02549603188429F
:1017C00009D023497831884205D0604503D02049AB
:1017D000A831884204D1016821F01401016003E0BE
:1017E000016821F00A010160012084F83500002021
:1017F00084F83400E16B002926D004B02046BDE80F
:10180000F05F084720E0082202FA0BF20A421BD0E0
:10181000310719D5016821F00E01016094F85C00D0
:1018200000F01F01012000FA01F16960606584F891
:101830003500002084F83400E16C002904D004B0A5
:101840002046BDE8F05F0847BDE8FF9F88000240E2
:1018500010040240085402582DE9F05F044600F0DD
:10186000DDFC0646002C7DD0F44F0222DFF8CC834D
:101870000025DFF8C893DFF8C4A308F13008DFF8CB
:10188000BCB309F1480920680AF1600A0BF1780B32
:10189000B84232D0E949183188422ED040452CD088
:1018A00048452AD0504528D0584526D0E3499031A4
:1018B000884222D0E149A83188421ED0E0498842BE
:1018C0001BD0DF491831884217D0DD4930318842BA
:1018D00013D0DB49483188420FD0D9496031884262
:1018E0000BD0D7497831884207D0D549903188420A
:1018F00003D0D349A83188427ED184F8352084F8BA
:101900003450B84234D0CD491831884230D04045A7
:101910002ED048452CD050452AD0584528D0C7490C
:101920009031884224D0C549A831884220D0C4498A
:1019300088421DD0C2491831884219D0C04930317F
:10194000884215D0BE494831884211D0BC49603127
:1019500088420DD0BA497831884209D0B8499031CF
:10196000884200E009E003D0B549A831884207D198
:10197000016821F00101016013E00120BDE8F09F42
:10198000016821F0010101600BE000F047FC801BC1
:10199000052806D920206065032084F83500012041
:1019A000ECE720680068C007EFD122681168A548FD
:1019B0000140D4E902031843D4E904363343184301
:1019C000A3691843E3691843236A18430843616A0B
:1019D000042903D1D4E90B13194308439A49096830
:1019E0006FF30F01B1F1005F11D36168A1F1290319
:1019F000052B0AD9163B00E02EE0032B05D9083B46
:101A0000012B02D94F39032901D840F4801010600E
:101A10002068406920F00701606A40EA0106042856
:101A20000DD1A06A0643E06A48B12046FEF792FE57
:101A300028B140206065012084F835009EE72068C9
:101A400046612046FEF798FD94F85C1001F01F02F5
:101A50003F219140816066E07C4988421BD07B4BEE
:101A60001433984217D0794B2833984213D0774BD0
:101A70003C3398420FD0754B503398420BD0734B88
:101A80006433984207D0714B7833984203D06F4B40
:101A90008C3398427ED1884211D06C4914318842EF
:101AA0000DD06A492831884209D068493C318842C2
:101AB00005D066495031884201D06449643184F8C8
:101AC000352084F83450026861490A40A1684029F1
:101AD0007ED080297DD00021E36841EAD3012369CB
:101AE00041EAD301636941EAD301A36941EAD30121
:101AF000E36941EAD301236A41EA1311114301600A
:101B000052492068494208441421B0FBF1F080009A
:101B1000E0652046FEF730FD94F85C1001F01F02EE
:101B20000121914041602068B84256D043491831A4
:101B3000884252D0404550D048454ED050454CD0B8
:101B400058454AD03D499031884246D03B49A8315A
:101B5000884242D03A4988423FD0394918318842B8
:101B60003BD037493031884237D0354948318842F7
:101B700033D03349603188422FD03149783188429F
:101B80002BD02F499031884227D02D49A831884247
:101B900023D000E02DE02D4988421ED02B4914317E
:101BA00088421AD029492831884216D027493C3129
:101BB000884212D02549503188420ED023496431E1
:101BC00088420AD021497831884206D01F4901E075
:101BD0000AE00BE08C31884229D12046FEF72CFD2B
:101BE000A06880280CD00CE0102175E74FF48041EC
:101BF00072E740206065032084F835000120BDE6CF
:101C00006560216E20790860D4E919104860606829
:101C1000401E072808D82046FEF75EFDE06E0560EE
:101C2000D4E91C10486002E0E566256765676565D4
:101C3000012084F835000020A0E6000010000240DA
:101C4000100402403F8010FE0010005C085402584F
:101C50000F00FEFF2DE9F84F044600200090002CF5
:101C600015D094F83400012813D0012084F83400F2
:101C700094F835500020012D0DD04FF400616165BE
:101C800084F83400012000900098BDE8F88F01200E
:101C9000FBE70220F9E7022584F835506065A54D81
:101CA000A44EA44F1835DFF88CC23036DFF884829A
:101CB0004837DFF88092DFF87CA208F16008DFF88F
:101CC00074B209F1780920680AF1900A0BF1A80BA7
:101CD00060453BD0A84239D0B04237D0B84235D069
:101CE000404533D0484531D050452FD058452DD0B0
:101CF000DFF844C2604529D0DFF83CC20CF1180C73
:101D0000604523D0DFF830C20CF1300C60451DD0A7
:101D1000DFF824C20CF1480C604517D0DFF818C278
:101D20000CF1600C604511D0DFF80CC20CF1780C9E
:101D300060450BD0DFF800C20CF1900C604505D077
:101D4000DFF8F4C10CF1A80C604506D1D0F800C052
:101D50002CF0010CC0F800C005E0D0F800C02CF059
:101D6000010CC0F800C02046FEF730FD7149206824
:101D700088422CD0A8422AD0B04228D0B84226D0DF
:101D8000404524D0484522D0504520D058451ED04B
:101D9000694A90421BD0684A1832904217D0664A6E
:101DA0003032904213D0644A483290420FD0624A97
:101DB000603290420BD0604A7832904207D05E4A3F
:101DC0009032904203D05C4AA83290420DD1026812
:101DD00022F01E0242F016020260206C90B12068D0
:101DE000026842F0080202600CE0026822F00E0273
:101DF00042F00A020260206C20B12068026842F0C2
:101E000004020260206888424BD0A84249D0B04208
:101E100047D0B84245D0404543D0484541D05045D1
:101E20003FD058453DD0444A90423AD0424A1832B9
:101E3000904236D0404A3032904232D03E4A483208
:101E400090422ED03C4A603290422AD03A4A7832B0
:101E5000904226D0384A9032904222D0364AA83258
:101E600090421ED0354A90421BD0344A14329042E0
:101E700017D0324A2832904213D0304A3C32904236
:101E80000FD02E4A503290420BD02C4A64329042EE
:101E900007D02A4A7832904203D0284A8C329042A6
:101EA0000DD1206E0268D20303D5026842F480721D
:101EB0000260E06E18B1026842F48072026020682D
:101EC00088422CD0A8422AD0B04228D0B84226D08E
:101ED000404524D0484522D0504520D058451ED0FA
:101EE000154988421BD014491831884217D012492D
:101EF0003031884213D01049483188420FD00E4902
:101F0000603188420BD00C497831884207D00A49A9
:101F10009031884203D00849A831884204D1016831
:101F200041F001010160AFE6016841F0010101608B
:101F3000AAE60000100002401004024008540258B3
:101F400070B5044600F06AF90546601C02D00448EA
:101F50000078044400F062F9401BA042FAD370BD3F
:101F6000380000240EB50021322310284FF47A7275
:101F70000FD0202816D0402814D0B0F5005F07D12C
:101F8000CDE900310023029103201946FEF754FDEC
:101F90000EBDCDE900310023029103201946FEF762
:101FA0004BFD0EBDCDE9003100230291012103203C
:101FB000FEF742FD0EBD10B54FF0B041D1F88820BC
:101FC000024203D0C1F88800FFF7CCFF10BD00002B
:101FD0002DE9F84F00227B4D03264FF001080F2713
:101FE0004FF0B04CE6E008FA02F31C409A46002C91
:101FF0007ED00B7903F00303012B01D0022B1BD100
:10200000D0F80890530006FA03FB29EA0B09D1F82F
:102010000CB00BFA03FB4BEA090BC0F808B043689D
:1020200023EA0A0391F80490C9F3001909FA02F9A6
:1020300049EA0309C0F804900B79DB439B070ED0F3
:10204000D0F80C90530006FA03FA29EA0A09D1F8ED
:1020500008A00AFA03FA4AEA090AC0F80CA00B79A8
:1020600003F00303022B14D1D30800EB8303D3F84E
:1020700020A04FEA42794FEAD96907FA09FB2AEA18
:102080000B0AD1F810B00BFA09FB4BEA0A0BC3F8A4
:1020900020B0D0F80090530006FA03FA29EA0A09A2
:1020A00091F804A00AF0030A0AFA03FA4AEA090AB4
:1020B000C0F800A04B6813F4403F7AD0424BD3F8ED
:1020C000009049F00209C3F800901B6803F0020376
:1020D000009322F0030909F1B049D9F808B4930735
:1020E0004FEA137A07FA0AF32BEA030B374B00E0A7
:1020F0005FE0984201D100232DE0354B984201D199
:10210000012328E0334B984201D1022323E0324BD4
:10211000984201D103231EE0304B984201D10423A1
:1021200019E02F4B984201D1052314E02D4B984222
:1021300001D106230FE02C4B984201D107230AE07E
:102140002A4B984201D1082305E0294B984201D13E
:10215000092300E00A2303FA0AF343EA0B03C9F850
:102160000834DCF80030A343D1F804905FEAC929B1
:1021700000D52343CCF80030DCF80430A343D1F879
:1021800004905FEA892900D52343CCF804306B68BA
:10219000A343D1F804905FEA893900D523436B60EB
:1021A0002B68A343D1F804905FEAC93900D52343D3
:1021B0002B60521C0C6834FA02F37FF414AFBDE8B4
:1021C000F88F000080000058F444025800000258C4
:1021D0000004025800080258000C0258001002586F
:1021E0000014025800180258001C0258002002581F
:1021F000002402580069084201D0012070470020E5
:102200007047002A01D081617047090481617047DD
:1022100001480068000C70470010005C01488068AD
:102220007047000038000024024881680278114499
:10223000816070473800002410B5032000F08CF84E
:1022400001F0B2F80F490A68C2F303230E4AD35CC7
:1022500003F01F03D840096801F00F01515C0B4ADD
:1022600001F01F0120FA01F11160094908600F20F7
:1022700000F010F808B1012010BD00F031F8002086
:1022800010BD0000184402580271000848000024E4
:102290004400002470B504460F4D2A78002A0CD063
:1022A0004FF47A700D49B0FBF2F00968B1FBF0F021
:1022B00001F072FC18B1012070BD012070BD102C1E
:1022C00007D200222146501E00F026F86C60002044
:1022D00070BD012070BD00003800002444000024BF
:1022E00008B50548016841F002010160006800F08E
:1022F0000200009008BD0000F4440258002809DBE9
:10230000012100F01F0291404009800000F1E0200F
:10231000C0F8001170470000F0B40D460D4B1B686B
:10232000C3F30223C3F10704042C00D90424191DAC
:10233000072901D2002300E0DB1E012606FA04F182
:10234000491E294099409E40761E16403143F0BCFC
:1023500004F028BB0CED00E000F00701054A10680E
:102360004FF6FF03184040EA01200349084310607C
:10237000704700000CED00E00000FA0570B514494C
:102380000A68D243520708D5096801F00701814263
:1023900001D0012070BD002070BD0A6822F0070244
:1023A00002430A60FFF73AFF0446094D4FF47A767C
:1023B000083D06E0FFF732FF001BB04201D90120C3
:1023C00070BD2868C0438004F4D4002070BD0000B4
:1023D0000C48025810B500F0A1FF05490968054AEC
:1023E000C1F30211515C01F01F01C84010BD000093
:1023F000204402580271000810B569490A6802F0C9
:1024000003020968C1F30531654B1B1D1B68C3F34B
:102410000013634C14342468C4F3CC0414FB03F39A
:1024200000EE103AB8EE400A002971D09FED5D1A17
:102430005B4BF7EE000A1033F2B39FED5B2A012AE3
:102440007FD0022A7CD001EE901A1968F8EE611A4A
:10245000C2EE212AC1F3080101EE901AF8EE611ACA
:1024600040EE011A31EEA00A22EE800A1968C1F38B
:10247000462101EE101AB8EE411A31EE201AC0EED4
:10248000011ABCEEE11A80ED001A1968C1F3064189
:1024900001EE101AB8EE411A31EE201AC0EE011A00
:1024A000BCEEE11A80ED011A1968C1F3066101EE74
:1024B000101AB8EE411A00E008E071EE200A80EE32
:1024C000201ABCEEC10A80ED020A10BD344A283A37
:1024D0001468A4061ED51268C2F3C104334AE24050
:1024E00001EE902AF8EE612A01EE901A1968F8EED2
:1024F000611A82EEA12AC1F3080101EE901AF8EEEA
:10250000611A40EE011A31EEA00A22EE000AADE790
:1025100041E016E001EE901ADFED252A1968F8EE89
:10252000611A82EEA12AC1F3080101EE901AF8EEB9
:10253000611A40EE011A31EEA00A22EE000A95E778
:1025400013E001EE901A1968F8EE611AC2EE212A22
:10255000C1F3080101EE901AF8EE611A40EE011A7B
:1025600031EEA00A22EE800A80E701EE901ADFED3C
:10257000112A1968F8EE611A82EEA12AC1F3080146
:1025800001EE901AF8EE611A40EE011A31EEA00A3F
:1025900022EE000A6AE7002101604160816010BDFF
:1025A00028440258000000390024744A0090D003E7
:1025B0000024744C20BCBE4B10B569490A6802F077
:1025C00003020968C1F30551654B1B1D1B68C3F36A
:1025D0000023634C1C342468C4F3CC0414FB03F3C1
:1025E00000EE103AB8EE400A002971D09FED5D1A56
:1025F0005B4BF7EE000A1833F2B39FED5B2A012A1A
:102600007FD0022A7CD001EE901A1968F8EE611A88
:10261000C2EE212AC1F3080101EE901AF8EE611A08
:1026200040EE011A31EEA00A22EE800A1968C1F3C9
:10263000462101EE101AB8EE411A31EE201AC0EE12
:10264000011ABCEEE11A80ED001A1968C1F30641C7
:1026500001EE101AB8EE411A31EE201AC0EE011A3E
:10266000BCEEE11A80ED011A1968C1F3066101EEB2
:10267000101AB8EE411A00E008E071EE200A80EE70
:10268000201ABCEEC10A80ED020A10BD344A283A75
:102690001468A4061ED51268C2F3C104334AE2408E
:1026A00001EE902AF8EE612A01EE901A1968F8EE10
:1026B000611A82EEA12AC1F3080101EE901AF8EE28
:1026C000611A40EE011A31EEA00A22EE000AADE7CF
:1026D00041E016E001EE901ADFED252A1968F8EEC8
:1026E000611A82EEA12AC1F3080101EE901AF8EEF8
:1026F000611A40EE011A31EEA00A22EE000A95E7B7
:1027000013E001EE901A1968F8EE611AC2EE212A60
:10271000C1F3080101EE901AF8EE611A40EE011AB9
:1027200031EEA00A22EE800A80E701EE901ADFED7A
:10273000112A1968F8EE611A82EEA12AC1F3080184
:1027400001EE901AF8EE611A40EE011A31EEA00A7D
:1027500022EE000A6AE7002101604160816010BD3D
:1027600028440258000000390024744A0090D00325
:102770000024744C20BCBE4B2DE9F84F04460025C4
:102780000026FB4F2068DFF8EC83010104F12400F0
:1027900000900DD5606EB0B1B0F5801F18D0B0F5C7
:1027A000001F1BD0B0F5401F00D00125E5B12E461B
:1027B0002088C00535D5606D05282FD2DFE800F0F0
:1027C0001D22282F2F00386840F400303860EDE7D4
:1027D0000221201D02F094FF0546E7E70098022140
:1027E00003F020F80546E1E7D8F80000616E20F418
:1027F00040100843C8F80000DAE7386840F40030B9
:1028000038600CE00021201D02F07AFF054606E04A
:102810000098002103F006F8054600E001255DB1AF
:102820002E462088800518D5A06D802830D00CDC7D
:1028300018B340280ED125E0D8F80000616D20F0D3
:1028400007000843C8F80000EBE7C02803D0B0F544
:10285000807F00D001250DB32E462088DFF8189325
:1028600040052DD5D4F8A400B0F5800F42D01EDC71
:10287000A0B3B0F5001F20D136E0386840F4003036
:102880003860E8E70021201D02F03AFF0546E2E744
:102890000098002102F0C6FF0546DCE7D8F80000EA
:1028A000A16D20F4E0700843C8F80000D5E7B0F54A
:1028B000C00F03D0B0F5000F00D0012505B32E46A0
:1028C000208800052FD5D4F8A800B0F1007F52D0A1
:1028D00020DCE8B3B0F1807F22D146E0FFE7386822
:1028E00040F400303860E9E70021201D02F008FFC5
:1028F0000546E3E70098002102F094FF0546DDE776
:10290000D9F80000D4F8A41020F460000843C9F8F6
:102910000000D5E7B0F1407F03D0B0F1806F00D068
:10292000012575B32E46206880010AD5A06C30B110
:10293000102831D0202835D0302800D0012585B38B
:102940002E462088C00446D5E06DB0F5005F00E05B
:1029500006E05BD036DCA0B3B0F5805F38D14FE045
:10296000386840F400303860DBE70021201D02F0B9
:10297000C7FE0546D5E70098002102F053FF054643
:10298000CFE7FFE7D9F80000D4F8A81020F0E06006
:102990000843C9F80000C6E7386840F400303860E2
:1029A000CDE705E00221201D02F0AAFE0546C6E79C
:1029B0007048001F0168A26C21F0300111430160D2
:1029C000BFE718E0B0F5405F03D0B0F5804F00D00E
:1029D00001250DB32E46208880042FD5206EB0F53A
:1029E000403F29D021DC38B3B0F5803F37D0B0F577
:1029F000003F20D139E0386840F400303860E8E723
:102A00000021201D02F07CFE0546E2E7009800212F
:102A100002F008FF0546DCE7D8F80000E16D20F47D
:102A2000E0400843C8F80000D5E7B0F5802F03D098
:102A3000B0F5A02F00D00125EDB12E46208840042E
:102A40002BD5D4F8AC00B0F1405F24D01CDC10B31F
:102A5000B0F1805F4BD0B0F1005F1BD14EE001219F
:102A6000201D02F04DFE0546E6E70098012102F028
:102A7000D9FE0546E0E7D8F80000216E20F4E020FA
:102A80000843C8F80000D9E7B0F1804F03D0B0F197
:102A9000A04F00D0012585B32E46208800040AD51A
:102AA000E06E30B1B0F1805F39D0B0F1005F3BD063
:102AB00001259DB32E462068C0010AD5606C30B157
:102AC000012841D0022844D0032800D001258DB32D
:102AD0002E462068DFF8A4B0400261D5284801687E
:102AE00041F480710160FFF799FB824652E00121B9
:102AF000201D02F005FE0546CDE705E00098012106
:102B000002F090FE0546C6E7D9F80000D4F8AC10F4
:102B100020F0E0400843C9F80000BEE70BE0386849
:102B200040F400303860C4E70121201D02F0E8FDC8
:102B30000546BEE713E0D8F80000E16E20F04050F3
:102B40000843C8F80000B6E7386840F40030386041
:102B5000BDE70221201D02F0D3FD0546B7E7054879
:102B6000001F0168626C21F0030111430160B0E7AE
:102B70002C440258504402585844025810440258F9
:102B800000480258FFF74AFBA0EB0A00642801D96D
:102B9000032503E0FE480068C005F3D57DB12E464D
:102BA0002078DFF8F0A3C00766D0A06F182861D0A6
:102BB0005BDC80B308286AD010285AD16DE0F54854
:102BC0001C300068B4F8B01000F4407001F440719B
:102BD00088420DD0EF481C30016821F44071026832
:102BE00042F480320260026822F4803202600160A6
:102BF000D4F8B000B0F5807F13D1FFF70FFB824609
:102C00000AE0FFF70BFBA0EB0A0141F2883081429A
:102C100002D9032505E02DE0DE481C30006880075E
:102C2000EFD50DB12E46BBE7D4F8B000C0F30121BB
:102C300003290FD0DBF8000020F47C50CBF8000013
:102C4000D4481C300168B4F8B020C2F30B02114321
:102C50000160A5E7DBF80010CF4A21F47C51104059
:102C600041EA1010CBF80000EAE7202802D028281B
:102C700000D00125BDB12E46207880072BD5606F8E
:102C8000062825D2DFE800F025181E25252501217C
:102C9000201D02F035FD0546ECE70098012102F009
:102CA000C1FD0546E6E7DAF80000A16F20F0380024
:102CB0000843CAF80000DFE70121201D02F020FDD3
:102CC000054606E00098012102F0ACFD054600E053
:102CD000012565B12E462078400720D5D4F8900014
:102CE000062819D2DFE800F0190C12191919DAF8C0
:102CF0000000616F20F007000843CAF80000EAE70F
:102D00000121201D02F0FCFC054606E0009801218F
:102D100002F088FD054600E001258DB12E462078A1
:102D2000800620D5D4F88C00B0F1405F19D011DCBA
:102D3000B8B1B0F1805F27D0B0F1005F10D129E0C9
:102D4000D9F80000D4F8901020F007000843C9F823
:102D50000000E4E7B0F1804F03D0B0F1A04F00D005
:102D60000125EDB12E46207840062CD5D4F89800E8
:102D7000B0F5406F25D01DDC18B3B0F5806F33D0AF
:102D8000B0F5006F1CD135E00021201D02F0B8FC29
:102D90000546E6E70098022102F044FD0546E0E71B
:102DA000DAF80000D4F88C1020F0E0400843CAF8AC
:102DB0000000D8E7B0F5805F03D0B0F5A05F00D089
:102DC0000125EDB12E46207800062CD5D4F89C00C4
:102DD000B0F5C04F25D01DDC18B3B0F5005F2BD087
:102DE000B0F5804F1CD12DE00021201D02F088FCA1
:102DF0000546E6E70098022102F014FD0546E0E7EB
:102E0000D9F80000D4F8981020F4E0500843C9F82D
:102E10000000D8E7B0F5004F03D0B0F5204F00D048
:102E20000125ADB12E46207800072AD5D4F88000C0
:102E3000B0F5805F16D01BE00021201D02F060FC81
:102E40000546EEE70098022102F0ECFC0546E8E7B3
:102E5000D9F80000D4F89C1020F460400843C9F869
:102E60000000E0E70098022102F0DCFC00B101263E
:102E7000DAF80000D4F8801020F440500843CAF873
:102E800000002078C00613D5D4F89400B0F5807FF8
:102E900005D10098022102F0C5FC00B10126D9F845
:102EA0000000D4F8941020F440700843C9F80000E2
:102EB000206800030BD5D4F8A000E8B3B0F5803F3C
:102EC0006DD0B0F5003F00D00125B5B32E46206887
:102ED00040030DD5D4F88400B0F5801F7DD0B0F547
:102EE000001F7BD0B0F5401F00D0012535B32E4622
:102EF0002068C00307D5E06CF0B3B0F5803F6ED01A
:102F00000125D5B32E462068800005D50098022102
:102F100002F088FC00B101262068800311D5E06F23
:102F200048B1B0F5807F6ED0B0F5007F03D0B0F52A
:102F3000407F00D0012502E05FE06BE07FE06DB3F1
:102F40002E462068C00207D5D8F80000216F20F077
:102F500000400843C8F800002068C00008D5DBF82E
:102F60000000D4F8B41020F480400843CBF80000EF
:102F7000206880020AD501E06CE076E0D8F8000015
:102F8000A16E20F080700843C8F80000206807E0B8
:102F90000048025854440258FFFCFF0F72E033E02F
:102FA00040000CD5DBF8000020F40040CBF8000016
:102FB000DBF80000D4F8B8100843CBF80000206814
:102FC000002806DA35480168226D21F0405111438E
:102FD0000160206800020CD502E025E029E03EE017
:102FE000DAF80000D4F8881020F440000843CAF84A
:102FF000000076B30120BDE8F88F0021201D02F00B
:103000007FFB054661E738E00098022102F00AFCE8
:1030100005465AE7D9F80000D4F8A01020F4403053
:103020000843C9F8000052E7386840F400303860BF
:103030005CE70098012102F0F5FB054656E7DAF857
:103040000000D4F8841020F440100843CAF80000AF
:103050004EE720E0386840F40030386051E7022144
:10306000201D02F04DFB05464BE70C480168E26C61
:1030700021F480311143016045E7386840F40030A5
:10308000386058E7DAF80000E16F20F44070084338
:10309000CAF8000055E70020ADE700004C44025894
:1030A0002DE9F05F04460D46002C17D0DFF84C8266
:1030B000D8F8000000F00F00A84211D2D8F80000A4
:1030C00020F00F002843C8F80000D8F8000000F0F6
:1030D0000F00A84204D00120BDE8F09F0120FBE7CB
:1030E0002078874E40070AD52069316801F07001C9
:1030F000884204D9316821F07001014331602078A1
:10310000804F00070AD56069396801F07001884274
:1031100004D9396821F07001014339602078C00674
:103120000AD5A069396801F4E061884204D9396898
:1031300021F4E061014339602078DFF8CC9180060A
:103140000DD5E069D9F8001001F07001884206D968
:10315000D9F8001021F070010143C9F8001020785F
:1031600080070AD5E068316801F00F01884204D970
:10317000316821F00F01014331602078C00743D04E
:103180003068A16820F47060084330605C49606872
:103190001839022808D003280BD001280ED009685E
:1031A000490710D4012097E7096889030BD401204F
:1031B00092E70968890106D401208DE70968C905ED
:1031C00001D4012088E7DFF838A1AAF1080ADAF86B
:1031D000001021F007010143CAF80010FFF71EF8A4
:1031E000834609E0FFF71AF8A0EB0B0141F28830A3
:1031F000814201D903206FE7DAF80000616800F02E
:103200003800B0EBC10FEDD1207880070AD5E06817
:10321000316801F00F01884204D2316821F00F01BA
:1032200001433160D8F8000000F00F00A8420ED929
:10323000D8F8000020F00F002843C8F80000D8F8A4
:10324000000000F00F00A84201D0012044E72078E0
:1032500040070AD52069316801F07001884204D224
:10326000316821F0700101433160207800070AD5F0
:103270006069396801F07001884204D2396821F030
:103280007001014339602078C0060AD5A069396809
:1032900001F4E061884204D2396821F4E06101431D
:1032A0003960207880060DD5E069D9F8001001F06A
:1032B0007001884206D2D9F8001021F07001014354
:1032C000C9F8001000F070F83168C1F303220F490B
:1032D0008A5C02F01F02D040326802F00F02895C63
:1032E0000B4A01F01F0120FA01F111600949086041
:1032F00009480068BDE8F05FFEF7CCBF002000522F
:10330000184402581C440258204402580271000814
:1033100048000024440000243C00002400B500F0D4
:1033200043F80B490A68C2F303230A4AD35C03F04B
:103330001F03D840096801F00F01515C064A01F0F3
:103340001F0120FA01F11160044A1060084600BD17
:103350001844025802710008480000244400002468
:1033600000B5FFF7DBFF05490968054AC1F3021103
:10337000515C01F01F01C84000BD00001C44025810
:103380000271000800B5FFF7C9FF05490968054A41
:10339000C1F30221515C01F01F01C84000BD0000D3
:1033A0001C4402580271000830B564480068654C3E
:1033B00010F03801624808D0021108290DD01029F8
:1033C0000DD018290DD0104630BD21688906FBD5D7
:1033D0002168C1F3C101C84030BD104630BD5A4814
:1033E00030BD564918310A6802F003020968C1F37A
:1033F0000511524B1C331B6803F001034F4D24355C
:103400002D68C5F3CC0515FB03F300EE103AB8EEBA
:10341000400A002977D0DFED4D0A484BB7EE001A7D
:1034200020333AB39FED4A2A012A58D0022A6CD0A1
:1034300001EE901A1868F8EE611AC2EE212AC0F364
:10344000080001EE900AF8EE611A40EE201A31EE03
:10345000810A22EE800A1868C0F34620401C00EE64
:10346000900AF8EE600A80EE201ABCEEC10A10EE57
:10347000100A30BD226892061BD52268C2F3C10231
:10348000D04001EE900A1868F8EE612A01EE901A19
:10349000F8EE611A82EEA12AC0F3080001EE900A4C
:1034A000F8EE611A40EE201A31EE810A22EE000A8F
:1034B000D1E701EE901ADFED272A1868F8EE611ABD
:1034C00082EEA12AC0F3080001EE900AF8EE611A1C
:1034D00040EE201A31EE810A22EE000ABBE701EE2F
:1034E000901A1868F8EE611AC2EE212AC0F308009B
:1034F00001EE900AF8EE611A40EE201A31EE810AD0
:1035000022EE800AA7E716E0FFE701EE901ADFED52
:10351000122A1868F8EE611A82EEA12AC0F3080098
:1035200001EE900AF8EE611A40EE201A31EE810A9F
:1035300022EE000A8FE7002030BD00001044025840
:103540000090D0030044025840787D01000000390B
:103550000024744A0024744C20BCBE4B2DE9F05F5B
:103560000446002C10D02078DFF8F883FE4FFF4D82
:10357000C0075DD0D8F8000000F038003968102886
:103580001FD0182803D006E00120BDE8F09F01F00D
:103590000300022815D06068B0F5803F18D0E0B174
:1035A000B0F5A02F22D0286820F480302860286849
:1035B00020F480202860606860B3FEF72FFE064686
:1035C00024E02868800333D5606810BB0120DCE765
:1035D000286840F480302860EDE7286820F48030C7
:1035E0002860286820F480202860E4E7286840F4F8
:1035F00080202860286840F480302860DBE7FEF7F0
:103600000DFE801B642801D90320BEE728688003D3
:10361000F5D50DE0FEF702FE064606E0FEF7FEFDDC
:10362000801B642801D90320AFE728688003F5D404
:10363000207841F2030ACE4E80073DD5D8F800002D
:1036400000F03800396870B1182801D188070AD015
:10365000E06890B3296821F0190101432960FEF761
:10366000DDFD814641E02868400701D5E06848B1AA
:103670002868E16820F0190008432860FEF7CEFDB5
:10368000814609E0012080E7FEF7C8FDA0EB0900B4
:10369000022801D9032078E728684007F4D5FEF70F
:1036A000B7FD504511D82069402807D0316821F472
:1036B0007C3141EA003030604AE036E0306820F486
:1036C0007C3040F40030306042E03068217C20F0F3
:1036D000FE4040EA016030603AE0FEF79FFDA0EB5B
:1036E0000900022801D903204FE728684007F4D5D4
:1036F000FEF78EFD504510D82069402806D031686D
:1037000021F47C3141EA0030306021E0306820F45F
:103710007C3040F4003030601AE03068217C20F0CA
:10372000FE4040EA0160306012E0286820F00100AD
:103730002860FEF773FD814607E0FEF76FFDA0EB02
:103740000900022801D903201FE728684007F4D4A4
:103750002078C0062FD5D8F8000000F0380039686E
:10376000DFF800B20828ABF1040B0FD0182803D102
:1037700001F00300012809D0E06978B3286840F01F
:1037800080002860FEF74AFD814630E02868C005C9
:1037900004D5E069802801D00120F6E6FEF738FD67
:1037A000504510D8206A202806D0316821F0F84111
:1037B00041EA806030604FE0306820F0F84040F02F
:1037C0008040306048E0DBF8000094F8201020F0E2
:1037D0007C5040EA0160CBF800003DE02AE0FEF7B3
:1037E0001DFDA0EB0900022801D90320CDE62868C1
:1037F000C005F4D5FEF70CFD504510D8206A2028EE
:1038000006D0316821F0F84141EA8060306023E061
:10381000306820F0F84040F0804030601CE0DBF879
:10382000000094F8201020F07C5040EA0160CBF8B2
:10383000000011E0286820F080002860FEF7EEFC10
:10384000064606E0FEF7EAFC801B022801D90320A9
:103850009BE62868C005F5D42078000730D5DFF84E
:103860000891606909F14C09A8B1D9F8000040F04D
:103870000100C9F80000FEF7D1FC064606E0FEF79D
:10388000CDFC801B022801D903207EE6D9F8000078
:103890008007F4D514E0D9F8000020F00100C9F841
:1038A0000000FEF7BBFC064606E0FEF7B7FC801BF7
:1038B000022801D9032068E6D9F800008007F4D473
:1038C0002078800626D5A06990B1286840F4805001
:1038D0002860FEF7A3FC064606E0FEF79FFC801B6F
:1038E000022801D9032050E628688004F5D511E0AC
:1038F000286820F480502860FEF790FC064606E019
:10390000FEF78CFC801B022801D903203DE62868C5
:103910008004F5D42078400779D5164E306840F4FD
:1039200080703060FEF77AFC814607E0FEF776FC97
:10393000A0EB0900642801D9032026E63068C00501
:10394000F4D5DFF82490A06809F14809012821D0B6
:1039500038B3052832D0D9F8000020F00100C9F8AA
:10396000000009E01044025828440258004402585C
:103970000444025800480258D9F8000020F004001E
:10398000C9F80000A06841F2883A80B3FEF746FC0F
:10399000064627E0D9F8000040F00100C9F8000011
:1039A000F0E7D9F8000020F00100C9F80000D9F8CC
:1039B000000020F00400C9F80000E3E7D9F8000097
:1039C00040F00400C9F80000D9F8000040F0010000
:1039D000C9F80000D6E7FEF721FC801B504501D94D
:1039E0000320D2E5D9F800008007F4D50FE0FFE707
:1039F000FEF714FC064606E0FEF710FC801B50455F
:103A000001D90320C1E5D9F800008007F4D4616A28
:103A1000E9B3D8F80000DFF87C81C0F3C2000328C6
:103A200076D0022907D0286820F080702860FEF741
:103A3000F5FB04467FE0286820F080702860FEF7E0
:103A4000EDFB064606E0FEF7E9FB801B022801D9E4
:103A500003209AE528688001F5D4386840F2F331F4
:103A60008843E16A40EA0110A16A08433860208E69
:103A70004FF6FF72616B401E491EC0F3080002EA58
:103A800041210843218F4FF4FE02491E00E07FE0F0
:103A900002EA0141084394F83C10491E120202EA6E
:103AA00001610843C8F800003A48001F016821F08E
:103AB000010101603749091D0A684FF6F8739A43FE
:103AC000A36C42EAC3020A600168226C21F00C0177
:103AD000114301600168626C21F002011143016031
:103AE000016841F480310160016841F400310160F6
:103AF000016841F480210160016841F00101016029
:103B0000286840F080702860FEF788FB044607E0D4
:103B100015E0FEF783FB001B022801D9032034E5E2
:103B200028688001F5D533E0FEF778FB001B0228FA
:103B300001D9032029E528688001F5D428E03A68F6
:103B4000D8F80000012921D0A36A02F003019942AC
:103B50001CD1E16AC2F30512914217D1216BC0F367
:103B60000802491E8A4211D1616BC0F34622491EE8
:103B700091420BD1A16BC0F30642491E914205D17F
:103B8000E16BC0F30660491E814201D00120FCE4D4
:103B90000020FAE43044025810B5401EB0F1807F96
:103BA00001D3012010BD4FF0E02460610F216017A8
:103BB00002F0F8FE0020A06107202061002010BD67
:103BC000704770477047000030B590F83C20012ADC
:103BD0003AD0012280F83C20CA6800248B6822F485
:103BE00040721A434B6822F480621A430B6822F435
:103BF00000621A430B6922F480521A434B6922F483
:103C000000521A438B6A22F480421A430B8B22F42F
:103C1000702242EA03420D4D0368AB4202D00C4DC4
:103C2000AB420CD18D8C22F4700242EA0552CD6970
:103C300022F080722A43096A22F000720A435A6411
:103C400080F83C40002030BD022030BD0000014023
:103C500000040140F0B590F83C20012A3AD001263A
:103C600080F83C60022280F83D2003685A689C6816
:103C7000194FDFF868C0BB4201D0634503D122F47D
:103C800070054A682A4322F070020D6815435D6092
:103C90000268BA4213D0B2F1804F10D0104B9A4252
:103CA0000DD0104B9A420AD00F4B9A4207D0624572
:103CB00005D00E4B9A4202D00D4B9A4204D124F00B
:103CC00080038968194391603C304670002101707F
:103CD0000020F0BD0220F0BD0000014000040140C2
:103CE0000004004000080040000C004000180040A4
:103CF0000040014010B50446002C03D094F83D006C
:103D000010B107E0012010BD002084F83C002046DF
:103D100000F018F8022084F83D002068211D01F011
:103D2000E5FE01203D34E0726070A070E07020710B
:103D30006071A071E07120726072A072207000202A
:103D400010BD000008B500681C49884209D11C4814
:103D5000016841F001010160006800F0010000907D
:103D600008BD1749174A0839904211D1086840F038
:103D700010000860086800F0100000900022362053
:103D80001146FEF7C9FABDE808403620FEF7B6BA7C
:103D90000D4A9042E4D1086840F0200008600868AD
:103DA00000F020000090002237201146FEF7B4FA00
:103DB000BDE808403720FEF7A1BA0000000001402E
:103DC000F0440258001000400014004090F83D10EC
:103DD000012901D001207047022180F83D100168BF
:103DE000CA6842F00102CA6000681549884214D0CE
:103DF000B0F1804F11D0134988420ED01249884249
:103E00000BD01249884208D01149884205D0114987
:103E1000884202D0104988420CD181680F4A114073
:103E200006290BD0B1F5803F08D0016841F00101AF
:103E3000016003E0016841F001010160002070476A
:103E4000000001400004004000080040000C004059
:103E5000000401400018004000400140070001003C
:103E600070B50446002594F83C00012815D00126C1
:103E700084F83C60022084F83D0020688268394B59
:103E80001A4022F47F4282600868702802462ED0D1
:103E900010DC10F00F0F03D022E04FF0020070BDD5
:103EA0004FEA201007281BD2DFE800F0575757577A
:103EB0004D394300B0F1101F4FD009DCB0F5805FE1
:103EC0000FD0B0F5005F1ED0B0F5801F08D144E0E0
:103ED000A0F58010203840D010283ED020283CD0BB
:103EE00001253C34667000202070284670BDCB68E8
:103EF0002068D1E9012101F066FE2068816841F067
:103F000077018160EDE7CB682068D1E9012101F0FC
:103F10005AFE2068816841F480418160E1E7CA6807
:103F20004968206801F0F2FF2068502101F056FE38
:103F3000D7E7CA684968206801F0F9FF2068602166
:103F400001F04CFECDE7CA684968206801F0DEFF49
:103F50002068402101F042FEC3E72068114601F0CD
:103F60003DFEBEE788FFCEFF2DE9F04104460D4639
:103F7000002C03D094F83D0018B108E00120BDE802
:103F8000F081002084F83C00204600F049F802202F
:103F900084F83D0020688168204A114081602068D3
:103FA000211D01F0A3FD293454F8290C8168826990
:103FB000066A2B680B4340F203318A43AF69A96854
:103FC00042EA0722114340F60C4291434FF2F002BD
:103FD0009143EF69EA6841EA07210A4329692F6A98
:103FE000090141EA0731114326F0220222F0880636
:103FF0006A686D6946EA05152A43836054F8290CFE
:10400000816154F8290C02620120E0776075A07587
:10401000E076207720750020B1E70000F8BFFEFFB2
:1040200070B586B00446142101A8FCF71CFA224A98
:104030000025204E2168083A1F4B02241F48B14238
:104040001AD1196841F002011960196801F00201E2
:104050000091116841F001011160116801F0010146
:104060000091C0210191029403950495059401A942
:10407000FDF7AEFF06B070BD114EB142FAD119681E
:1040800041F008011960196801F0080100911168F8
:1040900041F001011160116801F00101009103215B
:1040A0000191029403950495059401A9FDF790FFF1
:1040B000E0E7000000040040E84402580000025815
:1040C000000C004070B5044614F83E0F6278A379E6
:1040D000E5793E3C0226002904D004290DD00128B0
:1040E0001CD115E0012801D1012B01D0012070BDA8
:1040F00084F83E6084F8446018E0012A01D1012D63
:1041000001D0012070BD84F83F6084F845600DE067
:10411000012A03D1012B01D1012D01D0012070BD55
:1041200004F83E6F6670A671E6713E3C91B10429B9
:1041300016D020680122002101F038FD20680122FC
:10414000042101F033FD2068016841F001010160A4
:10415000002070BD20680122002101F027FDF2E758
:1041600020680122042101F021FDECE7704770B5C1
:104170000446206801694FF00005C943890716D439
:10418000C168C943890712D4E91E01610120207763
:1041900020688069800703D02046FFF7E7FF05E02D
:1041A000204600F0D5F8204600F096F925772068E3
:1041B0000169C943490718D4C168C943490714D4E0
:1041C0006FF004010161022020772068806910F4FB
:1041D000407F03D02046FFF7C9FF05E0204600F0EE
:1041E000B7F8204600F078F9257720680169C943BF
:1041F000090717D4C168C943090713D46FF0080130
:104200000161042020772068C069800703D0204620
:10421000FFF7ACFF05E0204600F09AF8204600F0DA
:104220005BF9257720680169C943C90618D4C168BC
:10423000C943C90614D46FF010010161082020772A
:104240002068C06910F4407F03D02046FFF78EFF3E
:1042500005E0204600F07CF8204600F03DF9257787
:1042600020680169C943C90708D1C168C943C907A2
:1042700004D1891E0161204600F0C4F9206801695B
:10428000C943090609D4C168C943090605D46FF0BA
:10429000800101612046FFF794FC20680169C94351
:1042A000C90509D4C168C943090605D46FF48071F2
:1042B00001612046FFF784FC20680169C943490673
:1042C00009D4C168C943490605D46FF040010161B2
:1042D000204600F0CDF920680169C94389060BD456
:1042E000C168C943890607D46FF0200101612046E7
:1042F000BDE87040FFF766BC70BD000010B586B029
:104300000446142101A8FCF7AEF80E492068884243
:1043100016D10D48016841F010010160006800F0FD
:10432000100000904FF420600190022002900020C5
:10433000039004900120059001A90448FDF748FE70
:1043400006B010BD00000140E044025800100258C1
:10435000704770B504460D46002694F83C000128CD
:104360000BD0012084F83C000C2A4FD007DC82B12E
:10437000042A22D0082A06D134E0022070BD102A77
:1043800059D0142A6BD00126002084F83C00304616
:1043900070BD2068294601F02BFC2068816941F03E
:1043A000080181612068816921F004018161206830
:1043B00081692A6911438161E6E72068294601F095
:1043C00067FC2068816941F400618161206881692E
:1043D00021F480618161206881692A6941EA0221B2
:1043E0008161D1E72068294601F09CFC2068C16901
:1043F00041F00801C1612068C16921F00401C16177
:104400002068C1692A691143C161BDE72068294656
:1044100001F0D2FC2068C16941F40061C1612068EB
:10442000C16921F48061C1612068C1692A6941EADA
:104430000221C161A8E72068294601F0F7FC206845
:10444000416D41F0080141652068416D21F0040192
:1044500041652068416D2A691143416594E72068F0
:10446000294601F01BFD2068416D41F40061416562
:104470002068416D21F4806141652068416D2A69A1
:1044800041EA022141657FE710B50446002C03D0C4
:1044900094F83D0010B107E0012010BD002084F821
:1044A0003C00204600F017F8022084F83D00206808
:1044B000211D01F01BFB01203D34E0726070A070F3
:1044C000E07020716071A071E07120726072A07262
:1044D0002070002010BD70477047000030B50446C2
:1044E00000290DD004290ED008290FD00C2910D096
:1044F000102911D094F84300012810D0012030BDBC
:1045000094F83E00F8E794F83F00F5E794F840008F
:10451000F2E794F84100EFE794F84200ECE702205C
:10452000E9B3042947D0082948D00C2949D01029DB
:104530004AD084F843000122206801F037FB274964
:104540002068274A274B884209D0904207D09842DA
:1045500005D0254DA84202D0244DA84203D1456C78
:1045600045F4004545642068884212D0B0F1804F80
:104570000FD01F4988420CD01E49884209D01E49DD
:10458000884206D0904204D01C49884201D098420B
:104590001DD181681A4A114006291CD000E007E0AD
:1045A000B1F5803F17D0016841F00101016012E0D0
:1045B00084F83E00BFE784F83F00BCE784F8400081
:1045C000B9E784F84100B6E784F84200B3E7016830
:1045D00041F001010160002030BD000000000140F9
:1045E00000040140004001400044014000480140F7
:1045F0000004004000080040000C0040001800408B
:104600000700010010B5184988422BD1174B1868D4
:10461000401C1860012018711968C90700D0587132
:1046200019683C22B1FBF2F402FB141101B9D871F4
:1046300019681422B1FBF2F402FB141101B998714C
:1046400019680A22B1FBF2F402FB141101B91872C5
:1046500019684FF47A72B1FBF2F402FB14110029CD
:1046600000D1587210BD000030010024480700241A
:10467000704790F88010012917D00121643001772C
:104680002421016250F8641C0A680B6823F00103BE
:104690000B6022F000510022026050F8643C196067
:1046A000202101620277002070470220704710B578
:1046B0000446D4F88800202801D0022010BD71B132
:1046C0006AB194F8800001280BD0012084F88000A2
:1046D000E066204602F0B4F8014621B107E001206F
:1046E00010BD022010BDE06E012802D00121084655
:1046F00010BD226810201062206850E8002F42F0A0
:10470000100240E80023002BF6D1F0E770B5044614
:104710002B48844203D12B494022FFF7C8FF2A4887
:1047200084424CD10020274A4032117855293ED18D
:10473000517855293BD19178244D012902D0032984
:104740001FD034E00021535C1844C0B2491CC9B2E8
:104750000A29F8D3917A814229D1507A117ADFED72
:104760001C0A000200B2084300EE100AB8EEC00AAC
:1047700020EE200ADFED170A20EE200A85ED000A60
:1047800015E0002113795679D47B1B021BB2334309
:10479000565C3044C0B2844205D100EE103AB8EE07
:1047A000C00A85ED020A491CC9B20F29F0D3054998
:1047B0004022BDE8704004484031FFF778BF70BD2B
:1047C000E8030024540700245803002408000024B0
:1047D0000000003800003443704770B5044694F878
:1047E000800001281DD0012084F880002420C4F816
:1047F000840020680568026822F0010202602068D7
:10480000826822F060620A438260204601F01CFC4C
:10481000206805602020C4F88400002084F880000F
:1048200070BD022070BD70B5044694F88000012868
:104830001DD0012084F880002420C4F88400206862
:104840000568026822F0010202602068826822F096
:1048500060420A438260204601F0F6FB2068056052
:104860002020C4F88400002084F8800070BD02205D
:1048700070BD7047704770B50446D4F88400D4F812
:104880008860216889684FF01005090618D521282D
:1048900016D12068083050E8001F21F0800140E860
:1048A0000012002AF5D1A06F38B1FCF7E9F820B169
:1048B000A06FFCF7FBFB202809D0204601F060FD2B
:1048C0002068806840061DD5222E04D01AE0C4F866
:1048D0008C50032070BD2068083050E8001F21F084
:1048E000400140E80012002AF5D1E06F38B1FCF732
:1048F000C7F820B1E06FFCF7D9FB202804D0204690
:1049000001F002FD002070BDC4F88C50032070BD82
:1049100010B504460C48844204D10C494022FFF7EC
:10492000C6FE07E00A48844204D1084940224039C3
:10493000FFF7BDFE21680820086202202168086296
:1049400004202168086210BD580300249407002445
:10495000E80300242DE9F04104462368D86919686A
:104960009A6840F60F0500EA0506002E0ED185066E
:104970000CD501F0200502F080573D4306D0216F91
:1049800000297DD02046BDE8F04108470025002ED3
:1049900077D0C84EC84F16400F40374371D0C70775
:1049A00009D0CF0507D501271F62D4F88C3043F01A
:1049B0000103C4F88C3083070AD5D30708D02768D1
:1049C00002233B62D4F88C3043F00403C4F88C30EB
:1049D00043070AD5D30708D0276804233B62D4F8DD
:1049E0008C3043F00203C4F88C3003070CD501F07F
:1049F0002003334308D0266808233362D4F88C3070
:104A000043F00803C4F88C3003050BD54B0109D5DE
:104A100026684FF400633362D4F88C3043F02003EF
:104A2000C4F88C30D4F88C30002B39D0800609D5EE
:104A300001F0200002F08051084303D0216F09B13A
:104A400020468847D4F88C0021688968490602D43A
:104A500010F0280F2AD0204601F056FC206880680C
:104A600040061FD52068083050E8001F21F04001A3
:104A700040E80012002AF5D1E06F70B18F4901E0E3
:104A80000EE019E00165E06FFCF7B8F9002807D0E7
:104A9000E06F016DBDE8F04108472046FFF738FFA1
:104AA000BDE8F0812046FFF733FFF9E72046FFF726
:104AB0002FFFC4F88C50F3E7E66E012E7DD1C606B9
:104AC0007BD5CE0679D510201862206880684FF01B
:104AD0002003400672D5E16F794A086890423AD0C7
:104AE000774A1832904236D0754A3032904232D0EE
:104AF000734A483290422ED0714A603290422AD096
:104B00006F4A7832904226D06D4A9032904222D03D
:104B10006B4AA83290421ED06A4A90421BD0694A22
:104B20001832904217D0674A3032904213D0654A0B
:104B3000483290420FD0634A603290420BD0614AB3
:104B40007832904207D05F4A9032904203D05D4A5B
:104B5000A832904201D1406800E0406880B200284D
:104B60009ED0B4F85C2082429AD9A4F85E00C8694D
:104B7000B0F5807F2ED0206850E8001F21F48071AE
:104B800040E80012002AF6D12068083050E8001FE3
:104B900021F0010140E80012002AF5D12068083018
:104BA00050E8001F21F0400140E80012002AF5D132
:104BB000C4F88830E566206801E045E014E050E87C
:104BC000001F21F0100140E80012002AF3D1E06F2D
:104BD000FBF756FFB4F85C00B4F85E10401A81B2DF
:104BE0002046FFF793FD5BE734F85C0F6188401ABD
:104BF00081B260885C3C0028F5D00029F3D02068A1
:104C000050E8002F22F4907240E80026002EF6D1E2
:104C1000284EF6432068083050E8002F324040E824
:104C20000027002FF6D1C4F88830E5662567206894
:104C300050E8002F22F0100240E80023002BF6D1AC
:104C40002046FFF763FD2BE7C50209D5550207D5BE
:104C50004FF4801018622046BDE8F041FFF70ABE0D
:104C600003060CD501F0800302F40002134306D0C2
:104C7000616F0029B7D02046BDE8F04108474206E1
:104C800006D54A0604D52046BDE8F04101F066BBD2
:104C9000020206D54A0004D52046BDE8F041FFF7E0
:104CA000E8BDC0019FD500299DDA2046BDE8F0414E
:104CB000FFF792BD0100001020010004B961000857
:104CC000100002401004024010B50446002C03D02E
:104CD000D4F8840010B107E0012010BD002084F852
:104CE0008000204600F028F82420C4F884002068C2
:104CF000016821F001010160204601F059FB012803
:104D000018D0A06A10B1204601F0C2F920684168AD
:104D100021F4904141602068816821F02A0181607E
:104D20002068016841F0010101602046BDE81040A3
:104D300001F012BA012010BD2DE9F04FB5B00446C4
:104D4000142130A8FBF78FFBBC2101A8FBF78BFBDC
:104D5000AE494FF04008AE4E4FF0020A20684FF0C7
:104D60000009AB4D083E0F1588426DD1CDF804A067
:104D7000CDF8789001A8FDF7FFFC08B1FBF77EFEA7
:104D8000286840F480102860286800F480100090A3
:104D9000306840F002003060306800F0020000909F
:104DA00060203090CDF8C4A0CDF8C890CDF8CC905C
:104DB0000E20349030A99748FDF70AF9974D964890
:104DC000286041206860C5F80890C5F80C902F61F4
:104DD000C5F81490C5F818904FF48070E861C5F8D4
:104DE0002090C5F824902846FCF736FD08B1FBF763
:104DF00045FEE567AC638848884D183078352860F3
:104E000042206860C5F80880C5F80C902F61C5F88D
:104E10001490C5F81890C5F81C90C5F82090C5F8F6
:104E200024902846FCF718FD08B1FBF727FEA5677C
:104E3000AC63002235201146FDF76EFA3520FDF7F0
:104E40005DFA35B0BDE8F08F7549DFF8D8B188421A
:104E50006CD1CDF804A0CDF8789001A8FDF78CFCBA
:104E600008B1FBF70BFE286840F0804028602868F6
:104E700000F080400090306840F0100030603068F2
:104E800000F0100000904FF4C0703090CDF8C4A036
:104E9000CDF8C890CDF8CC900720349030A9584672
:104EA000FDF796F85C485D4D3038F03528604F20AE
:104EB0006860C5F80890C5F80C902F61C5F814908B
:104EC000C5F81890C5F81C90C5F82090C5F8249036
:104ED0002846FCF7C1FC08B1FBF7D0FDE567AC63E1
:104EE000514D4D481838286050206860C5F808803A
:104EF000C5F80C902F61C5F81490C5F81890C5F846
:104F00001C90C5F82090C5F824902846FCF7A4FC16
:104F100008B1FBF7B3FDA567AC6300225220114630
:104F2000FDF7FAF95220FDF7E9F98AE73F4988428F
:104F300087D1CDF804A0CDF8789001A8FDF71CFC2E
:104F400008B1FBF79BFD286840F000402860286806
:104F500000F000400090306840F010003060306891
:104F600000F01000009003203090CDF8C4A0CDF8E0
:104F7000C890CDF8CC900820349030A95846FDF761
:104F800027F82548284D6038783528605220686019
:104F9000C5F80880C5F80C902F61C5F81490C5F8C5
:104FA0001890C5F81C90C5F82090C5F824902846A4
:104FB000FCF752FC08B1FBF761FDA567AC6316482E
:104FC000194D4838F035286051206860C5F80890C0
:104FD000C5F80C902F61C5F81490C5F81890C5F865
:104FE0001C90C5F82090C5F824902846FCF734FCA6
:104FF00008B1FBF743FDE567AC630022532011467F
:10500000FDF78AF95320FDF779F91AE700500040BF
:10501000E84402580004025870000240780400245A
:105020000078004000100258E0050024007C004099
:1050300030B4D0F88830202B02D0022030BC70472A
:10504000E1B1DAB190F88030012B19D0012380F85A
:1050500080300023C3660B4C0368A3420BD05B680F
:105060001B0208D5036853E8004F44F0806443E80E
:105070000045002DF6D130BC01F0E2BB0120DDE798
:105080000220DBE7000C00587047704770B50446FB
:10509000D4F88400202801D0022070BD69B362B327
:1050A00094F8800001282AD00120503484F8300080
:1050B0002160A280E2800025E56321206063A06A70
:1050C000503CF0B11749C163A16F17480864A16F44
:1050D0001648C864A06F056513462668216D2836FA
:1050E000A06F3246FCF7B6FD58B110208034E06066
:1050F000257020206060012070BD012070BD02205D
:1051000070BD21684020086284F880502068083013
:1051100050E8001F41F0800140E80012002AF5D15C
:10512000002070BDBB620008FD620008CD61000870
:1051300070477047FEE7000008B51D48016841F060
:1051400001010160006800F00100009000220B20C6
:105150001146FDF7E1F80B20FDF7D0F800220C20F6
:105160001146FDF7D9F80C20FDF7C8F800220D20F4
:105170001146FDF7D1F80D20FDF7C0F800220E20F2
:105180001146FDF7C9F80E20FDF7B8F800220F20F0
:105190001146FDF7C1F80F20FDF7B0F800221020EE
:1051A0001146FDF7B9F8BDE808401020FDF7A6B894
:1051B000D84402582DE9F04F87B0142102A8FBF71C
:1051C00052F96348016841F010010160016801F083
:1051D00010010191016841F004010160016801F0D2
:1051E00004010191016841F080010160016801F052
:1051F00080010191016841F001010160016801F045
:1052000001010191016841F002010160016801F0B2
:1052100002010191016841F008010160006800F09D
:1052200008000190DFF82C9149F204440022214645
:105230004846FCF7E6FFDFF820A148F210070022FD
:1052400039465046FCF7DDFFDFF810B1002204219B
:105250005846FCF7D6FF4FF44068584601224146B5
:10526000FCF7CFFF029401250395002404940594D4
:1052700002A94846FCF7ACFE702002904FF40416D9
:105280000396049402A94846FCF7A2FE6803029024
:105290000396049402A93248FCF79AFE02970395FC
:1052A0000494059402A95046FCF792FE0420029053
:1052B00003950494059402A95846FCF789FECDF89D
:1052C00008801120039004940220059002A95846FA
:1052D000FCF77EFE280302900396049402A9584628
:1052E000FCF776FE4FF4604002900394049402A908
:1052F0005846FCF76DFE4FF47060029003940494DE
:1053000002A91848FCF764FE280202900394049452
:1053100002A95046FCF75CFE00220A201146FCF769
:10532000FBFF0A20FCF7EAFF002217201146FCF7DA
:10533000F3FF1720FCF7E2FF002228201146FCF7BC
:10534000EBFF2820FCF7DAFF07B0BDE8F08F000084
:10535000E0440258001002580000025800040258AD
:1053600000080258000C025810B59AB00024169498
:105370001794189419941394149415941C210CA840
:10538000FBF771F82C2101A8FBF76DF82F482E4987
:10539000016002214160846041F6FF01C160046147
:1053A00044618461FEF7A6FC08B1FBF767FB4FF48C
:1053B00080501690254816A9FEF752FD08B1FBF75C
:1053C0005DFB2248FFF760F808B1FBF757FB139429
:1053D0001494159413A91D48FEF73CFC08B1FBF783
:1053E0004DFB60200C900D940E940F94109411942A
:1053F0001294002215480CA9FEF7ABFF08B1FBF789
:105400003DFB124804220CA9FEF7A3FF08B1FBF7ED
:1054100035FB019402940394049405944FF40050D6
:10542000069007940894000309900A940B9401A92C
:105430000648FEF7C9FB08B1FBF720FB0348FEF75F
:105440005DFF1AB010BD0000000001404C000024B8
:1054500010B58CB0242103A8FBF705F800240094B4
:1054600001940294154814490160446084604FF629
:10547000FF71C160046184610320039004940121E1
:10548000059106940F200790089409910A940B90B7
:1054900003A90A48FEF768FD08B1FBF7EFFA00948C
:1054A000029469460548FEF7D5FB002801D0FBF7BA
:1054B000E5FA0CB010BD0000000400409800002484
:1054C00010B58CB0242103A8FAF7CDFF0024009476
:1054D00001940294154814490160446084604FF6B9
:1054E000FF71C16004618461032003900494012171
:1054F000059106940F200790089409910A940B9047
:1055000003A90A48FEF730FD08B1FBF7B7FA00948B
:10551000029469460548FEF79DFB002801D0FBF781
:10552000ADFA0CB010BD0000000C0040E4000024F7
:105530003EB500240094019402940E480C49016089
:1055400077214160846040F2E731C1608021816150
:10555000FEF7D0FB08B1FBF791FA0094029469467C
:105560000448FEF777FB002801D0FBF787FA3EBD21
:1055700000100040300100243EB500240094019446
:1055800002940E480C490160EF214160846042F2B0
:105590000F71C1608461FEF7ADFB08B1FBF76EFAD5
:1055A0000094029469460548FEF754FB002801D098
:1055B000FBF764FA3EBD0000001400407C010024AB
:1055C00010B51848164901604FF4E13141600021DF
:1055D0008160C16001610C2242618161C16101622F
:1055E00041628162FFF770FB08B1FBF747FA0D4893
:1055F0000021FFF718F908B1FBF740FA094800212C
:10560000FFF7EBF808B1FBF739FA0648FFF731F876
:10561000002803D0BDE81040FBF730BA10BD0000F1
:1056200000500040C802002410B518481649016017
:105630004FF4E131416000218160C16001610C22C1
:1056400042618161C161016241628162FFF73CFB9D
:1056500008B1FBF713FA0D480021FFF7E4F808B191
:10566000FBF70CFA09480021FFF7B7F808B1FBF780
:1056700005FA0648FEF7FDFF002803D0BDE81040FC
:10568000FBF7FCB910BD000000780040580300246F
:1056900010B51848164901604FF4E131416000210E
:1056A0008160C16001610C2242618161C16101625E
:1056B00041628162FFF708FB08B1FBF7DFF90D4893
:1056C0000021FFF7B0F808B1FBF7D8F9094800212D
:1056D000FFF783F808B1FBF7D1F90648FEF7C9FFD9
:1056E000002803D0BDE81040FBF7C8B910BD00008A
:1056F000007C0040E8030024FEE7FEE7704700005E
:105700002DE9F047044688460027DFF81491D9F8C0
:105710000000C043800709D0414D283D286820F093
:1057200080602860FCF77AFD064609E00120BDE8AC
:10573000F087FCF773FD801B022801D90320F6E7F0
:1057400028680001F5D4D9F80000216820F47C30E5
:1057500040EA0130C9F80000A0884FF6FF72A16846
:10576000401E491EC0F3080002EA41210843A189F6
:105770004FF4FE02491E02EA01410843217C120255
:10578000491E02EA01610843254910310860244896
:10579000001D0168626921F0C001114301600168C8
:1057A000A26921F0200111430160016821F010017C
:1057B00001601B4914310A684FF6F8739A43E36994
:1057C00042EAC3020A60016841F010010160B8F1C9
:1057D000000F0ED0B8F1010F10D0016841F4001194
:1057E0000160286840F080602860FCF717FD0446DF
:1057F00010E0016841F400210160F2E7016841F422
:1058000080110160EDE7FCF709FD001B022801D9BA
:1058100003208CE728680001F5D5384687E70000AB
:10582000284402582DE9F047044688460027DFF84F
:105830001491D9F80000C043800709D0414D283D9C
:10584000286820F080502860FCF7E8FC064609E054
:105850000120BDE8F087FCF7E1FC801B022801D99C
:105860000320F6E728688000F5D4D9F800002188E5
:1058700020F07C7040EA0150C9F80000A0884FF683
:10588000FF72A168401E491EC0F3080002EA4121D0
:105890000843A1894FF4FE02491E02EA0141084370
:1058A000217C1202491E02EA016108432549183190
:1058B00008602448001D0168626921F440611143B9
:1058C00001600168A26921F400711143016001685F
:1058D00021F4807101601B491C310A684FF6F8738E
:1058E0009A43E36942EAC3020A60016841F48071A5
:1058F0000160B8F1000F0ED0B8F1010F10D00168AF
:1059000041F080710160286840F080502860FCF709
:1059100085FC044610E0016841F480010160F2E773
:10592000016841F400010160EDE7FCF777FC001B22
:10593000022801D903208CE728688000F5D5384675
:1059400087E70000284402587047FCF76DBC000050
:1059500010B59CB04C2109A8FAF785FD202101A8BB
:10596000FAF781FD0220FCF709FD002420480168B8
:1059700041F44041016001681E490A6842F0010299
:105980000A60096801F00101009101688904FCD5F1
:105990000120099000040A900220129013900A211D
:1059A00014914FF4C071159116901790189004201F
:1059B00019901A941B9409A8FDF7D0FD08B1FBF7C4
:1059C0005DF83F200190032002900394082004908A
:1059D000402005900690010107910890042101A83C
:1059E000FDF75EFB002801D0FBF748F81CB010BDA6
:1059F000184802582C04005810B52C48016841F48E
:105A0000700101602A4A106800F00F00072804D2D4
:105A1000106820F00F00C01D10602649086840F093
:105A200001000860234B0020103318600B68224CE3
:105A300023400B60136803F00F03072B04D913688E
:105A400023F00F03DB1D13601A4A18321060121D79
:105A50001060121D1060174B184A28331A601B1D66
:105A6000174A1A601B1D174A1A601B1D18601B1D60
:105A70001A601B1D18601B1D1A601A1D10600A6831
:105A800022F480220A600B49603108600E480068E9
:105A90006FF30F00B0F1005F02D20C4901200860E3
:105AA00043F2D2000A49086010BD000088ED00E012
:105AB00000200052004402587FEDF6EA0002020284
:105AC0000000FF01800201010010005C088100510C
:105AD000004000520148FEF74ABB0000300100249C
