:020000040800F2
:10000000180D0024E5030008BB6C00081D680008FB
:10001000B96C00080B1E0008A97E00080000000053
:10002000000000000000000000000000096F000850
:10003000CD22000800000000BD6C00080B6F000816
:10004000FF030008FF030008FF030008FF03000888
:10005000FF030008FF030008FF030008FF03000878
:10006000FF030008FF030008FF0300080D1E00083F
:10007000191E0008251E0008311E0008FF03000895
:10008000FF030008FF030008FF030008FF03000848
:10009000FF030008FF030008FF030008FF03000838
:1000A000FF030008FF030008FF030008FF03000828
:1000B000FF030008FF030008FF030008FF03000818
:1000C000FF030008FF030008FF030008FF03000808
:1000D000FF030008FF030008FF030008FF030008F8
:1000E000CF220008FF03000800000000FF03000803
:1000F000FF030008FF030008FF030008FF030008D8
:10010000FF030008FF030008FF030008FF030008C7
:10011000FF030008FF03000895700008FF030008B4
:10012000FF030008FF030008FF030008FF030008A7
:10013000FF030008FF030008FF030008FF03000897
:1001400000000000000000000000000000000000AF
:10015000FF030008FF030008FF030008FF03000877
:10016000FF030008FF030008FF030008FF03000867
:10017000FF030008FF030008FF030008FF03000857
:10018000FF030008FF030008117500081D75000833
:10019000FF030008FF030008FF030008FF03000837
:1001A000FF030008FF030008FF030008FF03000827
:1001B000FF030008FF030008FF030008FF03000817
:1001C000FF030008FF030008FF030008FF03000807
:1001D000FF030008FF030008FF030008FF030008F7
:1001E000FF030008FF030008FF030008FF030008E7
:1001F000FF030008FF030008FF030008FF030008D7
:10020000FF030008FF030008FF030008FF030008C6
:10021000FF030008FF030008FF030008FF030008B6
:10022000FF030008FF030008FF03000800000000B0
:10023000FF030008FF03000800000000FF030008A0
:10024000FF030008FF030008FF030008FF03000886
:10025000FF030008FF030008FF030008FF03000876
:10026000FF030008FF030008FF030008FF03000866
:10027000FF030008FF030008FF0300080000000060
:10028000FF030008FF030008FF0300080000000050
:1002900000000000FF03000800F002F800F092F8F0
:1002A0000AA090E8000C82448344AAF10107DA45D1
:1002B00001D100F087F8AFF2090EBAE80F0013F091
:1002C000010F18BFFB1A43F001031847B093000059
:1002D000D0930000103A24BF78C878C1FAD85207EA
:1002E00024BF30C830C144BF04680C6070470000B0
:1002F0000023002400250026103A28BF78C1FBD82F
:10030000520728BF30C148BF0B6070476E2900F00C
:10031000EF81702900F03983662909F0688065292A
:1003200009F06580672909F06280612909F0618020
:1003300003681B0A28BF41F08001692900F09C81F5
:10034000642900F09981752900F096816F2900F0E9
:10035000C682782900F00583E92900F06182E4294A
:1003600000F05E82F52900F05B82EF2900F0C38285
:10037000F82900F004830368DB0928BF41F08001FD
:10038000632901F00B80732901F01080E32901F04B
:100390001B80F32901F02080002070471FB509F071
:1003A00021F801F06FF804000020002109F004F8A2
:1003B000401C60600020002108F0E8FFE0601FBDE5
:1003C00010B510BD01F030F81146FFF7E7FF08F057
:1003D000FFFC01F00DF903B4FFF7F2FF03BC01F0DD
:1003E00045F900000948804709480047FEE7FEE755
:1003F000FEE7FEE7FEE7FEE7FEE7FEE7FEE7FEE7D5
:1004000004480549054A064B70470000B96F0008CB
:100410009902000818070024180D00241809002468
:100420001809002453EA020C00F069802DE9F04B12
:100430004FF00006002B1FBFB3FA83F503FA05F453
:1004400024FA05F65E4012BF1643B2FA82F502FAAC
:1004500005F4C5F120051EBF22FA05FC44EA0C0490
:10046000203556EA044C4FEA144418BF641C4FF080
:1004700000084FF00009904271EB030C39D30029BA
:1004800019BFB1FA81F701FA07F6B0FA80F700FA5E
:1004900007F6C7F120071EBF20FA07FC46EA0C0644
:1004A0002037B6FBF4FCA7EB0507103F07F01F0B46
:1004B000CBF120060CFA0BFB2CFA06F644BFB34630
:1004C0000026202FA4BF5E464FF0000B5BEA060C0F
:1004D00008BF4FF0010B19EB0B09ABFB027C48EB9B
:1004E0000608C01B06FB02CC0BFB03CC71EB0C0116
:1004F000C1E70B46024641464846BDE8F08B13B5BE
:100500004FF000004FF00001AFF30080BDE81C4049
:10051000704700007CB51D4616460C00009001D0C7
:100520002044401E074B7B442A46694601903046D2
:1005300000F0F7F805461CB10020694600F004F908
:1005400028467CBD290200004FF0000200B513468A
:1005500094469646203922BFA0E80C50A0E80C50E3
:10056000B1F12001BFF4F7AF090728BFA0E80C5094
:1005700048BF0CC05DF804EB890028BF40F8042B8D
:1005800008BF704748BF20F8022B11F0804F18BFFA
:1005900000F8012B704770477047704710B500F0A6
:1005A000C3FA006810BD10B5044600F0BDFA04603F
:1005B00010BD70B5044685690068C10601D53026B6
:1005C00000E02026C00707D070BDD4E901213046E5
:1005D0009047206A401C20626D1EF6D570BD70B534
:1005E000044685690078C00707D170BDD4E90121B0
:1005F00020209047206A401C20626D1EF6D570BDF9
:1006000009684A0501D540B27047C905FCD500B25A
:10061000704709684A0501D5C0B27047C905FCD5C5
:1006200080B2704770B50C460546012A05D028787F
:10063000800600D5EA69002302E0012305E05B1C87
:10064000934202D2E05C0028F9D1A869E618C01AEA
:10065000A861286A184428622846FFF7AAFF04E028
:10066000D5E9012114F8010B9047B442F8D328468C
:10067000FFF7B5FF70BD00002DE9F04106460024EC
:1006800010687529314616A510D0FFF7B9FF00286C
:1006900002DA404213A507E031688A0701D512A5A6
:1006A00002E0490704D511A5012401E0FFF7B1FFDD
:1006B00000210A2206F1240709E0B0FBF2FCB0FB9E
:1006C000F2F302FB1C00303078541846491C002815
:1006D000F3D123462A463046BDE8F04100F06DBA1A
:1006E000000000002D0000002B0000002000000092
:1006F00011680268006A530501D508700AE0D30545
:1007000001D5088006E0130603D5C217C1E900022F
:1007100000E008600120704701694A1C0261087806
:10072000704700B58FB0CDE9013100210591054931
:100730007944CDE903101146684600F031F90FB055
:1007400000BD0000E5FFFFFF0A6802F8010B0A6028
:100750007047D1E900239A4202D2531C0B601070FB
:10076000704700002DE9FF5F15468A460446DFF812
:10077000AC80F8440027D8E900103E46CDE90010CF
:1007800010E03AF816106A4602A800F029FE411C53
:1007900007D02178890603D5E269391891420DD82E
:1007A0000744761C2078800602D5E069B84205DD52
:1007B000AE42E6DB3AF816000028E2D1A069C01B81
:1007C000A0612046FFF7F5FED8E90010CDE9001042
:1007D000002017E03AF818106A4602A800F000FE60
:1007E000B0F1FF3F81460BD000250DF1080B05E06D
:1007F000D4E901211BF8050090476D1C4D45F7D346
:1008000008F10100B0428046E4DB206A38442062EF
:100810002046FFF7E4FEBDE8FF9F0000628D000068
:100820002DE9F0418046D21D22F007020025D2E9D1
:100830000002F52915A614D0011E72F1000106DA96
:100840000023D0EB030063EB020211A608E0D8F806
:1008500000108B0701D50FA602E0490701D50EA6AF
:1008600001251146002408F1240704E000F060F996
:1008700030323A55641C50EA0102F7D12B46324619
:1008800021464046BDE8F04100F097B90000000065
:100890002D0000002B0000002000000030B40021DB
:1008A00000F1240408E002F00705D208303542EADE
:1008B0004372DB086554491C52EA0305F3D104680E
:1008C000002310A2250707D5A40600D421B1C469CE
:1008D00001230DA2641EC46130BC00F06EB910B5D6
:1008E000044621461068FFF794FE02462046BDE804
:1008F00010400023D2E7D21D22F00701D1E90023E6
:10090000CCE700000000000030000000F0B40D460D
:100910000188090502D5214C7C4402E01F4C7C442F
:100920000E34002100F1240608E002F00F0712093E
:10093000E75D42EA03721B097754491C52EA030738
:10094000F3D102780023120704D5702D06D009B127
:10095000022311342246F0BC00F02FB901231034D9
:10096000F8E770B504460D4621461068FFF751FEC2
:10097000024629462046BDE870400023C6E7D21D46
:1009800022F00703D3E90023C0E70368126843F0AD
:10099000200303600823C3610023B7E7C48B000072
:1009A0002DE9F05F894604464FF0000ADFF874B184
:1009B000FB44C0F820A02046E1688847002874D096
:1009C000252806D0D4E901219047206A401C2062E6
:1009D000F1E700265F462046E16888472028054663
:1009E00007DB312D05D2781910F8200C08B1064329
:1009F000F1E7B00701D526F00406C4F81CA00027D3
:100A0000C4F818A02A2D09D0284607F0B9FD38B33C
:100A100004EB8708303DC8F8185019E059F8041B5A
:100A2000204604EB87029161E1688847012F054663
:100A300018D1E069002820DA26F020061DE0D8F859
:100A4000180000EB800005EB40003038C8F81800B3
:100A50002046E1688847054607F092FD0028EED160
:100A6000012F0AD02E2D08D12046E16888477F1C2F
:100A70000546022F46F02006C4DBA069002803DAF1
:100A8000404246F00106A061F00701D026F01006B2
:100A90006C2D0BD0682D09D04C2D39D06A2D35D056
:100AA000742D35D07A2D33D016E038E0E1682F462A
:100AB00020468847B842054609D16C2F26D04FF40E
:100AC0008060E168064320468847054604E06C2FB5
:100AD0001AD04FF4807006430DB3A5F141001928D8
:100AE00002D8203546F400664A462946204626604C
:100AF0004E46FFF70BFC80B101280BD0F61D26F007
:100B0000070000F1080956E74020E4E78020D8E715
:100B10000020D6E706F104094DE7284652E7206A8F
:100B2000BDE8F09F548B000000487047B8060024D1
:100B300030B5B0F10A024FEA900E71F100034EEAAF
:100B4000817EB0EB0E0061EB91014FEA101E4EEA80
:100B5000017E10EB0E0041EB11114FEA102E4EEA10
:100B6000016E10EB0E0041EB11214FEA104E4EEAE0
:100B7000014E10EB0E0041EB1141401841F1000114
:100B80004FEAD00040EA41704FEAD10110EB8005F6
:100B90004FEA810444EA907444EB01046D1944EB7C
:100BA0000404521BA3414FF0000348BF0A3200D592
:100BB00030BD401C41F1000130BD2DE9F0470D462C
:100BC00099469246044600F124080168880604D537
:100BD000E06921F01001216000E00120A84201DD60
:100BE000471B00E00027A1697A1902EB0900081AE7
:100BF000A0612078C00602D42046FFF7DAFC002668
:100C000008E0D4E901211AF806009047206A401C48
:100C1000761C20624E45F4DB2078C0060AD52046BB
:100C2000FFF7C7FC06E0D4E9012130209047206A95
:100C3000401C2062381EA7F10107F4DC07E0D4E96C
:100C4000012118F805009047206A401C2062281EE8
:100C5000A5F10105F3DC2046FFF7C1FC2078000672
:100C600002D50220BDE8F0870120FBE770472DE99F
:100C7000FF4F0C461E464FF0FF378BB0D2E9000104
:100C8000DDF860800A908A46C1F30A5505B93D46F1
:100C9000002108464FF00000BAF1000F00F44000B8
:100CA00005DA00EB80004FF4400101EA50004FEA02
:100CB0009059B9F1010F00DDB9460A9850EA4A008F
:100CC0000ED044F61050A5F2FF3545432F14B8F16D
:100CD000000F1ED07542291E1EDDC9F100021CE066
:100CE000B8F1010F4FF0000001D0302103E0F243D2
:100CF00005E02154401CB042FBDB304600220021BD
:100D000021540B99C1F80880C1E900200FB0BDE85B
:100D1000F08FBD1B6D1CDEE74A4600DA694206A86B
:100D200000F0F4FB06AB93E8070003AB83E8070091
:100D300050460A9900F0A1FC8DE80700A0F500508C
:100D40001F3800900398002D0ADD42F21F014A4629
:100D50000844002303A90390684600F00AFF09E055
:100D6000A0F500504A461F38002303A903906846A7
:100D700000F014FF8DE807000004000C03D04FF0D2
:100D8000FF30410800E01046B8F1000F03D0002208
:100D9000009215461EE0751E05D4FFF7C9FE3032DD
:100DA00062556D1EF9D5B3460122084302D00022D8
:100DB0007F1C04E02078302801D100227F1E002A09
:100DC000099784D01DE0112D07DAFFF7B1FE30320C
:100DD00062556D1C50EA0102F5D1084302D000981B
:100DE000C8B10EE00021681E05E0235C625C63541C
:100DF0002254401E491C8142F7DBAB46A81B401E13
:100E00000990002004F80B000B98099AC0F808809C
:100E1000C0E9002B7AE711264FF0000857E72DE9CB
:100E2000F04F88460446D21D22F0070191B0D1E967
:100E30000001CDE90A0107F038F802460B98C00F0F
:100E400001D02D2007E02068810701D52B2002E08A
:100E5000202101EAC000032A099001D0072A05DBFE
:100E600003464146204600F011FB0BE12078800646
:100E700001D5E06900E00620B8F1650F814606D093
:100E8000B8F1660F18D0B8F1670F70D131E00020CB
:100E9000B9F1110F009001DB112301E009F1010309
:100EA0000AAA01A90CA8FFF7E2FEDDE90C700026F2
:100EB00009F10105834647E001204B4600904FF0C1
:100EC00000470AAA01A90CA8FFF7D1FEDDE90DB081
:100ED0000C995D46002610B909F101000D18B9EB17
:100EE000050003D4C0F1FF3609F10105A5EB0900A7
:100EF0002BE0B9F1010F01DA4FF001090020B9F13F
:100F0000110F0090484601DD112300E003460AAAB4
:100F100001A90CA8FFF7ABFEDDE90C704D460026D9
:100F20008346207800070AD4AB4500DA5D4601A865
:100F3000012D04DD411911F8011C302907D04F455E
:100F400002DA17F1040F04DA012082460FE06D1E69
:100F5000EEE7002F02DCED1B3E4403E0781CA842C4
:100F600000DD7D1CB81B00F1010A4FF0004720781E
:100F7000000703D4AA4501DB4FF0FF3A0021B7F187
:100F8000004F0DF143088DF8431024D002202B238D
:100F9000002F01DA7F422D230A21021EA0F1010059
:100FA00000DC5FB197FBF1FC97FBF1F201FB1C7CCD
:100FB00017460CF1300C08F801CDEEE7A8F101005E
:100FC00003702188090501D5452100E06521A0F1C4
:100FD000010800F8011C09980FA9A1EB0807FF1DE3
:100FE00000B10120411901EBEA70A1693844081AE7
:100FF000401EA0612078C00602D42046FFF7D9FA2F
:10100000099828B1D4E901219047206A401C206248
:101010002078C00622D52046FFF7CBFA1EE0002E2E
:1010200004DBB34502DD01A8805D00E03020D4E997
:1010300001219047206A401C2062761CAAF1010021
:101040005FEA000A0AD100F01DFAC0680168405C3E
:10105000D4E901219047206A401C2062281EA5F196
:101060000105DCDC07E0D4E9012118F8010B904709
:10107000206A401C2062381EA7F10107F3DC2046DD
:10108000FFF7ADFA032011B041E600002DE9F04F63
:1010900004460D46D21D22F0070089B0D0E9009722
:1010A0004846394606F001FF0246F80F01D02D23CD
:1010B00007E02068810701D52B2302E0202101EA07
:1010C000C0038DF820300BB1012000E00020032A7E
:1010D000824601D0072A04DB2946204600F0D6F9D3
:1010E0003FE12078800601D40D2500E0E569C7F3D3
:1010F0000A560D2D49DA00214FEA175B08464FF0DA
:101100000000002F00F4400007DA00EB80004FF4ED
:10111000400100EBD07001EA60008115012901DD7A
:101120004FF0FF3100224FEA850CBCF1180F06D3B7
:101130001346ACF118004FF08052C24003E04FF468
:10114000801323FA0CF30CF10C0CBCF1200F04D328
:10115000ACF1200C09FA0CF001E007FA0CF00029C0
:101160004FF0004801DD18B90FE00ED140450CD317
:1011700019EB02095F4121B9404502D19F4329EA99
:101180000209BBEB175F00D0761C2088000502D552
:101190007B48784402E07A487844193808AA30231A
:1011A00002F80A30037C0AF10101002E0AF1020A5A
:1011B00053546A4602DC4FF0300101E04FF0310138
:1011C0004FF001088DF8001002D0A6F2FF3603E0C0
:1011D00059EA470100D06B4E002D02DC2178090747
:1011E00004D54FF002082E218DF80110C4460021CD
:1011F0000BE0C7F303433F01C35C491C6D1E02F8BB
:101200000830052908F1010801DA002DF1DC002180
:101210000CE000EB1973491C1B786D1E082902F8BD
:1012200008304FEA091908F1010801DA002DF0DC55
:1012300021688B0602D516E0A8F10108E04505DD1E
:1012400002EB080313F8013C302BF5D0B8F1000F86
:1012500009DD02EB080313F8013C2E2B03D109072B
:1012600001D4A8F10108002D05DD3E2102F8081087
:101270006D1E08F10108407C002E02F8080008F1FC
:10128000010804DA2D20764202F8080002E02B2043
:1012900002F808000A214FF47A70864208F101082A
:1012A0000BDB96FBF0F3303302F8083096FBF0F3DB
:1012B00008F1010800FB136601E0642E0CDB6420DA
:1012C00096FBF0F3303302F8083096FBF0F308F1A8
:1012D000010800FB136601E00A2E06DB96FBF1F025
:1012E000303002F8080008F1010896FBF1F001FB2C
:1012F0001060303002F80800A16908F1010808EB1D
:10130000050202EB0A00081AA0612078C00602D488
:101310002046FFF74EF9216A08AE01EB0A00206271
:1013200004E0D4E9012116F8010B9047BAF1010A53
:10133000F7D22078C00602D52046FFF73AF96E466C
:1013400009E016F8010B3E280FD0D4E9012190479F
:10135000206A401C2062B8F10108F2D22046FFF753
:101360003EF909B00320BDE8F08F206A28442062CE
:1013700003E0D4E90121302090476D1EEBD3F8E75C
:101380003D84000002FCFFFF10B5436913B1AFF3C9
:10139000008001E0FFF746F9012010BD127800F14E
:1013A00024010A7000224A700122EDE711684FF013
:1013B000FF32E9E710B5436913B1AFF3008001E0F4
:1013C000FFF7D0F9012010BD128800F124018284BA
:1013D0000022C2840122EDE711684FF0FF32E9E7F5
:1013E00070B516460C46054600F044F8036893F8BD
:1013F0000101012806D0FF2C0FD8185D68B101202B
:101400002C7070BDD3F807013246214603F2071352
:1014100003442846BDE8704018474FF0FF3070BDC8
:1014200000487047B80600247546FFF7F9FFAE463E
:1014300005006946534620F00700854618B020B5E0
:10144000FEF7DEFFBDE820404FF000064FF000073A
:101450004FF000084FF0000B21F00701AC46ACE85C
:10146000C009ACE8C009ACE8C009ACE8C0098D46C9
:101470007047000010B500F005F8001D10BD00BF5A
:10148000397F000000487047D80600242DE9F0415C
:101490001F46044603260168072A01F4006004DBA6
:1014A00008B116A505E016A503E008B115A500E0F2
:1014B00015A521F010002060A069C01EA0610FB129
:1014C000401EA0612046FFF774F84FB1D4E9012116
:1014D00038469047206A401C2062C01C206206E00B
:1014E000206AFAE7D4E9012115F8010B9047761E2E
:1014F000F8D22046FFF773F8BDE8F0814E414E0068
:101500006E616E00494E4600696E66002DE9F04737
:10151000814616468AB0354878440DC88DE80D00DE
:1015200032487844801C03AC0DC884E80D0041F6B5
:101530009B300844372190FBF1F290FBF1F5A5F1C7
:10154000800501FB12041B3C02D56442012000E02F
:101550000020DFF898A080460027FA44AAF1BE0ACE
:101560000EE0E0070AD03246684607EB4701012348
:101570000AEB810100F012FB8DE8070064107F1C6C
:10158000002CEED1194F7F44AE3F19E0E80715D08B
:1015900007EB04100DF1180A90E80E008AE80E001F
:1015A000C068F04201D1981908903246012306A97B
:1015B00003A800F0F3FA03AB83E807006D10641C86
:1015C000002DE3D14FF0010332466946B8F1000F18
:1015D00003A802D000F0CDFA01E000F0DFFAC9E97B
:1015E0000001C9F808200AB0BDE8F0874881000072
:1015F00010B50446AFF300802046BDE81040FEF76A
:10160000EABE00004FF0013C50F8042B51F8043BB7
:101610009A4215D1A2EB0C03934313EACC130BD1DE
:1016200050F8042B51F8043B9A4209D1A2EB0C0369
:10163000934313EACC13E7D04FF00000704700BF8C
:10164000D01A01BAB1FA81F101F0180122FA01F0C1
:10165000CB40C1F12001DBB2C0B2C01A2CFA01F3B9
:10166000D11A914311EAC311E6D1704701491820FC
:10167000ABBEFEE72600020070475FEA400C08BFE1
:1016800091F0000F4FEA8C234FEAC12243EA5151F7
:101690004FEA1C5018BF00F5F0404FEA300018BF69
:1016A00041F000415FEA6C5C00F02980BCF1FF3F33
:1016B00008BF40F080407047130C06BF12044FF083
:1016C000100C4FF0000C130E04BF12020CF1080CAA
:1016D000130F04BF12010CF1040C930F04BF92000E
:1016E0000CF1020CD30F04BF52000CF1010C114697
:1016F0004FF00002A0F11F00A0EB0C00704711F0AA
:10170000004F08BF704731F000413FF4D5AF0B0CDC
:1017100006BF09044FF0100C4FF0000C0B0E04BF75
:1017200009020CF1080C0B0F04BF09010CF1040CA9
:101730008B0F04BF89000CF1020CCB0F04BF4900D2
:101740000CF1010CCCF12003A0EB0C0022FA03F306
:1017500002FA0CF241EA030100F10100704720F0A7
:101760007F4C80EA030023F07F47ACEB070303F5CF
:101770007C5300F0004003F1FF032DE980494FEA5C
:10178000154B09B44FEA144325EA0B4E24EA0348EB
:101790000FF2042606EB132749083E785FEA32026F
:1017A00003FB0667C7F5000707FB06F64FEA543749
:1017B0004FEAD64606F1020607FB066CCCF1005C48
:1017C0004FEA1C472CEA074C07FB06F40CFB06F516
:1017D00004EB15464FEA961634BF00204FF0004048
:1017E0004FEAD13706FB07FC4FEA1C4C0CFB0BF70A
:1017F000D21B03FB0CF761EB07010CFB0EF7B0EB00
:10180000074072EB17420CFB08F734BFA2EB07420C
:10181000B2EB074261EB17414FEA0C444FEA9107E4
:1018200006FB07FC4FEA1C4C0CFB0BF7B0EBC74068
:1018300072EB573203FB0CF734BFA2EBC742B2EB9B
:10184000C74261EB57310CFB0EF7B0EBC70072EBF0
:1018500057720CFB08F734BFA2EBC702B2EBC7020A
:1018600061EB5771039F4FEA816141EA921104EBEA
:10187000CC044FEAD1374FEA826206FB07FC42EA0A
:1018800090124FEA80604FEA1C4C0CFB0BF7D21B06
:1018900003FB0CF761EB07010CFB0EF7B0EB074005
:1018A00072EB17420CFB08F734BFA2EB0742B2EB16
:1018B000074261EB17414FEA8C554FEA910704EB61
:1018C0009C2406FB07FC4FEA1C4C0CFB0BF7B0EB0F
:1018D000C74072EB573203FB0CF734BFA2EBC74291
:1018E000B2EBC74261EB57310CFB0EF7B0EBC70010
:1018F00072EB57720CFB08F734BFA2EBC702B2EBD6
:10190000C70261EB577115EB4C254FEA816141EA43
:1019100092114FEA82624FEAD13742EA901206FBF7
:1019200007FC44F100044FEA80604FEA1C4C0CFBBA
:101930000BF7D21B03FB0CF761EB07010CFB0EF757
:10194000B0EB074072EB17420CFB08F734BFA2EB79
:101950000742B2EB074261EB174115EB1C154FEA4A
:10196000813141EA92414FEA823242EA90424FEAA3
:1019700080304FEA0C7644F1000448EA03434EEA13
:101980000B484FF0000EB2EB080C71EB030724BFBD
:10199000624639464EEB0E0E4FF0000B00185241D6
:1019A00049414BEB0B0BB2EB080C71EB03077BF1DE
:1019B000000B24BF624639464EEB0E0E4FF0000B73
:1019C0000018524149414BEB0B0BB2EB080C71EB89
:1019D00003077BF1000B24BF624639464EEB0E0E27
:1019E00051EA020718BF46F0010616EB0E7655F1D4
:1019F000000254F1000103D5BDE88901BDE800886B
:101A0000BDE88901BDE80048B619524141EB01012A
:101A1000A3F10103704780807F7E7D7C7B7A79789B
:101A2000777676757473727171706F6E6E6D6C6CA3
:101A30006B6A6A6968686766666564646363626145
:101A40006160605F5F5E5E5D5D5C5C5B5B5A5A59C6
:101A50005958585757565655555554545353525232
:101A60005251515050504F4F4F4E4E4D4D4D4C4C8A
:101A70004C4B4B4B4A4A4A494949484848474747D3
:101A80004746464645454544444444434343434210
:101A9000424242414141002B9C4630D477002BD03A
:101AA0001CB54FEA370703B44FF010004FF0100198
:101AB000BAF1000F06D0BCF1000FDCBF40F0080007
:101AC00040F008014FF000000FBCBDE810400BF1E2
:101AD000010BBBF1010F08BF5FEA170722BF12F12C
:101AE000010211F101014FF0004143F1000300F048
:101AF000004043EA00007047F9D35708D0E746EAB0
:101B0000064613F1400F4FEA16461FDD13F1200F72
:101B1000DFBF16430A46002120335B42BED0C3F12B
:101B2000200746EA064602FA07F74FEA164646EA53
:101B30000706C3F1200722FA03F201FA07F721FA98
:101B400003F14FF0000342EA0702A7E746EA020664
:101B500046EA06464FEA164646EA0106BCBF46EA92
:101B60000646360C4FF000034FF000024FF0000124
:101B700094E72DE9804C9A46934670B491E838007A
:101B800007C831EA400C48BF34EA430C03D5FFF7DD
:101B9000E6FDFFF780FFF0BCBDE8008C2DE9804C2E
:101BA0009A46934670B491E8380007C810F0804F09
:101BB00008BF13F0804F03D100F005F8FFF76BFF6B
:101BC000F0BCBDE8008C20F07F4780EA030023F0E2
:101BD0007F4C07EB0C03A3F57C5300F00040A3F10E
:101BE000FE0392F0000F00F0B38095F0000F00F0BC
:101BF00077802DE901494FEA11404FEA144621EA66
:101C0000004800FB06FC24EA064708FB06F607FB33
:101C100008F800FB07F718EB06484CEB164C4FEAA8
:101C2000124B18EB07484FEA15464CEB174022EAD7
:101C30000B4E0BFB06FC25EA06470EFB06F607FBE0
:101C40000EFE0BFB07F71EEB064E4CEB164C4FF04F
:101C500000061EEB074E4CEB174B18EB0B0840F140
:101C6000000018EB0E0B58EB000840F100008F1A33
:101C70004FF000013CBFC943661B14BFB5EB040C19
:101C800000213CBFC943F61B4FEA17444EEA8E0EB3
:101C900027EA04454FEA1C4704FB07622CEA074C7D
:101CA00005FB07F70CFB05F604FB0CFC16EB0746DF
:101CB00042EB174216EB0C4642EB1C421BEB0606AE
:101CC00058EB0202414146EA9E0601D5BDE8018972
:101CD000B619524141EB0101A3F10103BDE80189AD
:101CE0004FEA14454FEA114724EA054621EA074C1A
:101CF00005FB07F406FB07F70CFB06F105FB0CFCE4
:101D000011EB074144EB17444FEA124711EB0C412A
:101D100044EB1C4422EA074C05FB07F206FB07F7DD
:101D20000CFB06F605FB0CFC16EB074642EB1742D4
:101D300016EB0C4642EB1C456A1854F1000148BFF3
:101D40007047B619524141EB0101A3F101037047FD
:101D500095F0000F37D04FEA11424FEA144721EABD
:101D6000024624EA074C02FB07F106FB07F70CFBCF
:101D700006F402FB0CFC14EB074441EB17414FEA5D
:101D8000154714EB0C4441EB1C4125EA074C02FBC0
:101D900007F506FB07F70CFB06F602FB0CFC16EB3F
:101DA000074645EB174516EB0C4645EB1C4212194E
:101DB00051F1000148BF7047B619524141EB010192
:101DC000A3F1010370474FEA14454FEA114724EA93
:101DD000054621EA074C05FB07F106FB07F70CFB5C
:101DE00006F24FF0000605FB0CFC12EB074241EB3C
:101DF000174112EB0C4251EB1C4148BF704792183F
:101E000041EB0101A3F101037047FEE7014800F037
:101E100091BD0000D8030024014800F08BBD0000F4
:101E200050040024014800F085BD0000E8020024B1
:101E3000014800F07FBD00006003002410B52C4A6B
:101E4000016891423AD02A4A1832914236D0284A43
:101E50003032914232D0264A483291422ED0244A22
:101E6000603291422AD0224A7832914226D0204ACA
:101E70009032914222D01E4AA83291421ED01D4A71
:101E800091421BD01B4A1832914217D0194A303266
:101E9000914213D0174A483291420FD0154A60320E
:101EA00091420BD0134A7832914207D0114A9032B6
:101EB000914203D00F4AA832914214D1CAB2103ACB
:101EC0001823B2FBF3F20C4C02F00703E35CC3658A
:101ED000032A04D96FF30901091D816506E06FF338
:101EE0000901816502E021F0FF018165806D10BD6F
:101EF0001000024010040240F693000810B501687B
:101F00000123224CCAB2A1421BD0204C1434A1425E
:101F100017D01E4C2834A14213D01C4C3C34A14293
:101F20000FD01A4C5034A1420BD0184C6434A1424B
:101F300007D0164C7834A14203D0144C8C34A14203
:101F40000FD1083A1421B2FBF1F1114A02EB8102E0
:101F500002660F4A8032426601F01F018B408366A1
:101F600010BD103A1824B2FBF4F20A4C2144A829FF
:101F700000D80832084901EB820101660649803128
:101F8000416602F01F018B40836610BD0854025861
:101F900000580258F0FBFDBF000802400279521EB3
:101FA000072A31D8194B016899421BD0174B1433BB
:101FB000994217D0154B2833994213D0134B3C3319
:101FC00099420FD0114B503399420BD00F4B6433D1
:101FD000994207D00D4B7833994203D00B4B8C3389
:101FE000994207D10A4901EB8201C1660849403193
:101FF000016706E0074901EB8201C16605494031EE
:102000000167012191404167704700000854025860
:102010000059025800090240014610B500208B69A2
:102020004FF0C0748A6A002B0ED0B3F5005F1AD04F
:1020300062B3012A2AD0022A28D0032A03D1C96A0E
:10204000C90100D5012010BD1AB1012A06D0022A0B
:10205000F9D1C96AC901F6D5012010BDC96AA142EA
:10206000FBD1012010BD52B1012A0AD0022A06D0AC
:10207000032AF7D1C96AA142F4D1012010BD012081
:1020800010BDC96AC901FBD5012010BD012010BDDA
:102090002DE9F04F856D8A4E894FDFF824C2A836AE
:1020A000DFF81C82DFF818920CF1180CDFF810A290
:1020B00008F13008DFF808B209F1480904680AF1AC
:1020C000600A0BF1780BBC426DD064456BD044457F
:1020D00069D04C4567D0544565D05C4563D0DFF886
:1020E000E0E10EF1900E74455DD0B4425BD0DFF8B4
:1020F000D4E1744557D0DFF8CCE10EF1180E7445E9
:1021000051D0DFF8C0E10EF1300E74454BD0DFF84E
:10211000B4E10EF1480E744545D0DFF8A8E10EF1A8
:10212000600E74453FD0DFF89CE10EF1780E7445E7
:1021300039D0DFF890E10EF1900E744533D0DFF81E
:1021400084E10EF1A80E74452DD0DFF87CE17445D2
:1021500029D0DFF874E10EF1140E744523D0DFF8B6
:1021600068E10EF1280E74451DD0DFF85CE10EF138
:102170003C0E744517D0DFF850E10EF1500E744557
:1021800011D0DFF844E10EF1640E74450BD0DFF896
:1021900038E10EF1780E744505D0DFF82CE10EF130
:1021A0008C0E744509D1D0E919E4CEF80440C46E10
:1021B0001CB1D0E91CE4CEF804400468BC422ED027
:1021C00064452CD044452AD04C4528D0544526D0CF
:1021D0005C4524D03A4F9037BC4220D0B4421ED048
:1021E000384EB4421BD0374E1836B44217D0354E55
:1021F0003036B44213D0334E4836B4420FD0314E4D
:102200006036B4420BD02F4E7836B44207D02D4EF4
:102210009036B44203D02B4EA836B4421BD190F86E
:102220005C4004F01F063F24B440AC60046825689D
:1022300025F480252560046863608368402B05D001
:10224000036899600068C260BDE8F08F03689A6017
:102250000068C160F8E71C4EB4421BD01A4E143619
:10226000B44217D0184E2836B44213D0164E3C361E
:10227000B4420FD0144E5036B4420BD0124E6436D6
:10228000B44207D0104E7836B44203D00E4E8C368E
:10229000B442D9D190F85C4004F01F060124B44048
:1022A0006C60046863608368402B04D003689960A5
:1022B0000068C260C8E703689A600068C160C3E74D
:1022C00010000240100402400854025870474FF4B6
:1022D000805001F095BA72B6FEE7000010B5094AC9
:1022E000911E881E06F0E8F9064A921D911E881E6E
:1022F00006F00FFA034ABDE810401032111F081F04
:1023000006F04EB9180000242DE9F84F044601F0FC
:10231000A9FB00905CB194F83500022809D0802018
:102320006065002084F834000120BDE8F88F0120AA
:10233000FBE7D14ED04FD0491836DFF83C83303719
:10234000DFF83493DFF830A308F14808DFF828B34A
:1023500009F1600920680AF1780A0BF1900B8842B4
:102360002ED0B0422CD0B8422AD0404528D0484583
:1023700026D0504524D0584522D0BF4AA83290429A
:102380001ED0BE4A90421BD0BC4A1832904217D091
:10239000BA4A3032904213D0B84A483290420FD0F5
:1023A000B64A603290420BD0B44A7832904207D09D
:1023B000B24A9032904203D0B04AA83290420AD139
:1023C000026822F01E0202602068426922F0800248
:1023D0004261256804E0026822F00E02026025686E
:1023E000206888424DD0B0424BD0B84249D04045D9
:1023F00047D0484545D0504543D0584541D09E4AE6
:10240000A83290423DD09D4A90423AD09B4A183221
:10241000904236D0994A3032904232D0974A483270
:1024200090422ED0954A603290422AD0934A783218
:10243000904226D0914A9032904222D08F4AA832C0
:1024400090421ED08E4A90421BD08D4A1432904248
:1024500017D08B4A2832904213D0894A3C3290429E
:102460000FD0874A503290420BD0854A6432904256
:1024700007D0834A7832904203D0814A8C3290420E
:1024800004D1206E026822F4807202607A492068CA
:1024900088422ED0B0422CD0B8422AD0404528D015
:1024A000484526D0504524D0584522D07249A831FD
:1024B00088421ED0714988421BD070491831884229
:1024C00017D06E493031884213D06C494831884268
:1024D0000FD06A49603188420BD068497831884210
:1024E00007D066499031884203D06449A8318842B8
:1024F00004D1016821F00101016013E0016821F0BD
:10250000010101600EE001F0ADFA0099401A0528C2
:1025100008D920203434206203206070002020700D
:10252000012002E72868C007EDD1534A0121206845
:1025300090422ED0B0422CD0B8422AD0404528D06C
:10254000484526D0504524D0584522D04A4BA83380
:1025500098421ED0494B98421BD0484B18339842A2
:1025600017D0464B3033984213D0444B48339842EF
:102570000FD0424B603398420BD0404B7833984297
:1025800007D03E4B9033984203D03C4BA83398423F
:1025900008D1A06D94F85C3003F01F053F23AB40D9
:1025A000836007E0A06D94F85C3003F01F0301FA2C
:1025B00003F34360206890424DD0B0424BD0B84204
:1025C00049D0404547D0484545D0504543D058456F
:1025D00041D0294AA83290423DD0284A90423AD070
:1025E000264A1832904236D0244A3032904232D0B5
:1025F000224A483290422ED0204A603290422AD05D
:102600001E4A7832904226D01C4A9032904222D004
:102610001A4AA83290421ED0194A90421BD0184A3A
:102620001432904217D0164A2832904213D0144ADE
:102630003C3290420FD0124A503290420BD0104A96
:102640006432904207D00E4A7832904203D00C4A4E
:102650008C3290420BD1D4E919205060E06E30B139
:10266000026822F480720260D4E91C205060343485
:1026700061700020207058E61000024010040240F3
:10268000085402582DE9F05F002808D090F8351062
:10269000022906D0802141650120BDE8F09F01207C
:1026A000FBE7A14AA04BA04C18329F4D30339E4E01
:1026B0004834DFF874B26035DFF870C27836DFF87E
:1026C0006C82DFF868920CF1300CDFF860A208F140
:1026D0006008016809F17809944F0AF1900A594598
:1026E00031D091422FD099422DD0A1422BD0A94276
:1026F00029D0B14227D0DFF830E20EF1900E7145BB
:1027000021D0DFF824E20EF1A80E71451BD0DFF8CE
:102710001CE2AEF1180E714515D0B94213D0DFF8A6
:102720000CE20EF1180E71450DD061450BD0DFF8AB
:10273000FCE10EF1480E714505D0414503D04945F5
:1027400001D0514537D14FF0040E80F835E059459E
:1027500027D0914225D0994223D0A14221D0A9422D
:102760001FD0B1421DD070489030814219D06E48C0
:10277000A830814215D06D481838814211D0B94235
:102780000FD06A48183081420BD0614509D06748A4
:102790004830814205D0414503D0494501D05145DB
:1027A00004D1086820F001000860BAE0086820F051
:1027B00001000860B5E0D1F800E02EF00E0EC1F87F
:1027C00000E00168DE46594531D091422FD0994250
:1027D0002DD0A1422BD0A94229D0B14227D0DFF879
:1027E00048B10BF1900B594521D0DFF83CB10BF10A
:1027F000A80B59451BD0DFF834B1ABF1180B594584
:1028000015D0B94213D0DFF824B10BF1180B59459C
:102810000DD061450BD0DFF814B10BF1480B5945D1
:1028200005D0414503D0494501D0514506D1D1F8E5
:1028300000B02BF0010BC1F800B005E0D1F800B0FA
:102840002BF0010BC1F800B001684FF0010B71458E
:1028500046D0914244D0994242D0A14240D0A942B0
:102860003ED0B1423CD0304A9032914238D02E4ACC
:10287000A832914234D02D4A183A914230D0B94210
:102880002ED02A4A183291422AD0614528D0274AB0
:102890004832914224D0414522D0494520D051456B
:1028A0001ED0234A91421BD0214A1432914217D0A4
:1028B0001F4A2832914213D01D4A3C3291420FD018
:1028C0001B4A503291420BD0194A6432914207D0D0
:1028D000174A7832914203D0154A8C32914218D16E
:1028E000016E0A6822F480720A60816D90F85C20A3
:1028F00002F01F020BFA02F24A60D0E9192151607E
:10290000C16E31B10A6822F480720A60D0E91C21DC
:10291000516080F835B0002180F83410016D01B1AC
:1029200088470020B9E60000100002402804024059
:10293000085402582DE9FF5F0446002001904FF42F
:102940001651FD480068B0FBF1F00090A56D2E68AF
:102950002968FA4FDFF8E4B3DFF8E083DFF8DC93AF
:102960000BF1180BDFF8D4A308F13008206809F147
:1029700048090AF1600AB8423BD05A46904238D022
:10298000404536D0484534D0504532D0EB4A7832B5
:1029900090422ED0E94A903290422AD0E74AA8329B
:1029A000904226D0E64A904223D0E54A183290421F
:1029B0001FD0E34B303398421BD0E14B4833984251
:1029C00017D0DFF87CC30CF1600C604511D0DFF844
:1029D00070C30CF1780C60450BD0DFF864C30CF1C8
:1029E000900C604505D0DFF858E30EF1A80E704555
:1029F0007ED194F85C10082301F01F0103FA01F264
:102A000032424BD0B84232D0584530D040452ED01B
:102A100048452CD050452AD0C8497831884226D024
:102A2000C6499031884222D0C449A83188421ED07C
:102A3000C34988421BD0C2491831884217D0C049C7
:102A40003031884213D0BE49483188420FD0BC494A
:102A5000603188420BD0BA497831884207D0B849F2
:102A60009031884203D0B649A831884203D1016829
:102A700001F0040102E0016801F0080171B1016890
:102A800021F00401016094F85C0000F01F0003FADB
:102A900000F2AA60606D40F00100606594F85C008F
:102AA000012100F01F008140314240D02068B8422F
:102AB00034D0584532D0404530D048452ED05045CE
:102AC0002CD09E4A7832904228D09C4A9032904234
:102AD00024D09A4AA832904220D0994A90421DD0E0
:102AE000974A1832904219D0954A3032904200E00D
:102AF000D2E113D0924A483290420FD0904A6032CD
:102B000090420BD08E4A7832904207D08C4A903255
:102B1000904203D08A4AA83290427DD1406910F099
:102B2000800F04D0A960606D40F00200606594F8E9
:102B30005C00042100F01F00814031423ED020683B
:102B4000B84232D0584530D040452ED048452CD0E0
:102B500050452AD0794A7832904226D0774A90322E
:102B6000904222D0754AA83290421ED0744A9042B8
:102B70001BD0734A1832904217D0714A30329042BB
:102B800013D06F4A483290420FD06D4A6032904263
:102B90000BD06B4A7832904207D0694A903290420B
:102BA00003D0674AA83290424ED1006810F0020F5D
:102BB00004D0A960606D40F00400606594F85C008A
:102BC000102100F01F008140314260D02068B842DF
:102BD00034D0584532D0404530D048452ED05045AD
:102BE0002CD0564A7832904228D0544A90329042A3
:102BF00024D0524AA832904220D0514A90421DD04F
:102C00004F4A1832904219D04D4A3032904215D076
:102C10004B4A4832904200E014E00FD0484A6032FC
:102C200090420BD0464A7832904207D0444A9032C4
:102C3000904203D0424AA832904207D1006800F087
:102C4000080006E0006872E70068B7E7006800F077
:102C5000040058B1A9602068016849030CD50068D8
:102C6000000304D4216C09B1204688470FE0A16C11
:102C700069B1204688470AE00168C90503D40168A4
:102C800021F008010160216C09B12046884794F8C1
:102C90005C00202100F01F00814031427BD0206881
:102CA000B84232D0584530D040452ED048452CD07F
:102CB00050452AD0214A7832904226D01F4A90327D
:102CC000904222D01D4AA83290421ED01C4A904207
:102CD0001BD01B4A1832904217D0194A303290420A
:102CE00013D0174A483290420FD0154A60329042B2
:102CF0000BD0134A7832904207D0114A903290425A
:102D000003D00F4AA832904203D1006800F01000AF
:102D100002E0006800F00200E8B3A96094F8350012
:102D2000042812D02068016849033DD500680003DB
:102D300035D4616C79B305E04C00002410000240EA
:102D400010040240204688473FE02068016821F0D7
:102D5000160101602068416921F080014161206C09
:102D600008B9A06C20B12068016821F00801016059
:102D700094F85C0000F01F013F208840A86001200B
:102D800084F83500002084F83400216D002974D0C7
:102D900004B0204600E018E0BDE8F05F0847E16BB2
:102DA00099B12046884710E00168C90509D4016837
:102DB00021F010010160012084F83500002084F822
:102DC0003400E16B09B120468847606D002854D07B
:102DD000606DC00758D0042084F835002068B842E0
:102DE00031D058452FD040452DD048452BD05045A7
:102DF00029D0B749884226D0B5491831884222D017
:102E0000B349303188421ED0B24988421BD0B14903
:102E10001831884217D0AF493031884213D0AD49BC
:102E2000483188420FD0AB49603188420BD0A94964
:102E30007831884207D0A7499031884203D0A5490C
:102E4000A831884204D1016821F00101016003E04A
:102E5000016821F00101016021680198009A401C7D
:102E60000190904202D80868C007F6D10868C007F0
:102E700004D0032084F8350003E087E0012084F8C3
:102E80003500002084F83400E16C00297ED004B0C5
:102E90002046BDE8F05F08478F4EB0421BD08E4EF3
:102EA0001436B04217D08C4E2836B04213D08A4E1A
:102EB0003C36B0420FD0884E5036B0420BD0864ED2
:102EC0006436B04207D0844E7836B04203D0824E8A
:102ED0008C36B0425AD106684FF0040E94F85CB0BC
:102EE0000BF01F0B0EFA0BFE1EEA010FCDF80CE0E3
:102EF0005ED05FEA467E5BD503986860300411D5EA
:102F0000F00307D4A16C002940D004B02046BDE8EE
:102F1000F05F0847216C002938D004B02046BDE896
:102F2000F05F0847B0063BD42068B8422DD068490E
:102F30006039884229D0404527D0484525D05045A2
:102F400023D06349884220D06149183188421CD07F
:102F50005F493031884218D05E49884215D090428E
:102F600013D05C49303188420FD098420DD0594976
:102F70006031884209D057497831884205D0604590
:102F800003D05449A831884206D100E07CE00168B2
:102F900021F00801016003E0016821F004010160F3
:102FA000216C002970D004B02046BDE8F05F0847CE
:102FB0004FF0020E0EFA0BFE1EEA010FCDF808E0EC
:102FC00063D05FEA867E60D502986860300411D5D0
:102FD000F00307D4616C002978D004B02046BDE826
:102FE000F05F0847E16B002970D004B02046BDE8CF
:102FF000F05F0847B0063FD42068B8422DD034496E
:103000006039884229D0404527D0484525D05045D1
:1030100023D02F49884220D02D49183188421CD016
:103020002B493031884218D02A49884215D0904225
:1030300013D02849303188420FD098420DD025490D
:103040006031884209D023497831884205D06045F3
:1030500003D02049A831884204D1016821F014012D
:10306000016003E0016821F00A010160012084F899
:103070003500002084F83400E16B002926D004B02C
:103080002046BDE8F05F084720E0082202FA0BF274
:103090000A421BD0310719D5016821F00E010160E9
:1030A00094F85C0000F01F01012000FA01F1696052
:1030B000606584F83500002084F83400E16C002954
:1030C00004D004B02046BDE8F05F0847BDE8FF9F8C
:1030D0008800024010040240085402582DE9F05FB5
:1030E000044600F0BFFC0646002C7DD0F44F0222BF
:1030F000DFF8CC830025DFF8C893DFF8C4A308F11C
:103100003008DFF8BCB309F1480920680AF1600A09
:103110000BF1780BB84232D0E949183188422ED0F1
:1031200040452CD048452AD0504528D0584526D077
:10313000E3499031884222D0E149A83188421ED02B
:10314000E04988421BD0DF491831884217D0DD4959
:103150003031884213D0DB49483188420FD0D949F9
:10316000603188420BD0D7497831884207D0D549A1
:103170009031884203D0D349A83188427ED184F867
:10318000352084F83450B84234D0CD4918318842C3
:1031900030D040452ED048452CD050452AD05845F7
:1031A00028D0C7499031884224D0C549A8318842E7
:1031B00020D0C44988421DD0C2491831884219D054
:1031C000C0493031884215D0BE494831884211D0BB
:1031D000BC49603188420DD0BA497831884209D063
:1031E000B8499031884200E009E003D0B549A831E0
:1031F000884207D1016821F00101016013E001203C
:10320000BDE8F09F016821F0010101600BE000F0D2
:1032100029FC801B052806D920206065032084F83E
:1032200035000120ECE720680068C007EFD1226874
:103230001168A5480140D4E902031843D4E90436D3
:1032400033431843A3691843E3691843236A1843B7
:103250000843616A042903D1D4E90B1319430843D5
:103260009A4909686FF30F01B1F1005F11D36168EA
:10327000A1F12903052B0AD9163B00E02EE0032B10
:1032800005D9083B012B02D94F39032901D840F455
:10329000801010602068406920F00701606A40EAF1
:1032A000010604280DD1A06A0643E06A48B1204611
:1032B000FEF7B2FE28B140206065012084F8350099
:1032C0009EE7206846612046FEF7B8FD94F85C1042
:1032D00001F01F023F219140816066E07C498842F5
:1032E0001BD07B4B1433984217D0794B283398422C
:1032F00013D0774B3C3398420FD0754B50339842E4
:103300000BD0734B6433984207D0714B783398429B
:1033100003D06F4B8C3398427ED1884211D06C49D8
:10332000143188420DD06A492831884209D0684951
:103330003C31884205D066495031884201D0644909
:10334000643184F8352084F83450026861490A40B9
:10335000A16840297ED080297DD00021E36841EA20
:10336000D301236941EAD301636941EAD301A36927
:1033700041EAD301E36941EAD301236A41EA131127
:103380001143016052492068494208441421B0FBAE
:10339000F1F08000E0652046FEF750FD94F85C10E7
:1033A00001F01F020121914041602068B84256D0CF
:1033B00043491831884252D0404550D048454ED0FC
:1033C00050454CD058454AD03D499031884246D06E
:1033D0003B49A831884242D03A4988423FD03949D6
:1033E000183188423BD037493031884237D035498F
:1033F0004831884233D03349603188422FD0314937
:10340000783188422BD02F499031884227D02D49DE
:10341000A831884223D000E02DE02D4988421ED0FB
:103420002B49143188421AD029492831884216D0B4
:1034300027493C31884212D02549503188420ED06C
:103440002349643188420AD021497831884206D024
:103450001F4901E00AE00BE08C31884229D1204667
:10346000FEF74CFDA06880280CD00CE0102175E719
:103470004FF4804172E740206065032084F83500F6
:103480000120BDE66560216E20790860D4E919103D
:1034900048606068401E072808D82046FEF77EFD79
:1034A000E06E0560D4E91C10486002E0E56625671F
:1034B00065676565012084F835000020A0E60000FE
:1034C00010000240100402403F8010FE0010005C1B
:1034D000085402580F00FEFF2DE9F84F0446002063
:1034E0000090002C15D094F83400012813D001204E
:1034F00084F8340094F835500020012D0DD04FF49D
:103500000061616584F83400012000900098BDE8F6
:10351000F88F0120FBE70220F9E7022584F83550F7
:103520006065A54DA44EA44F1835DFF88CC2303627
:10353000DFF884824837DFF88092DFF87CA208F158
:103540006008DFF874B209F1780920680AF1900A7E
:103550000BF1A80B60453BD0A84239D0B04237D020
:10356000B84235D0404533D0484531D050452FD0B2
:1035700058452DD0DFF844C2604529D0DFF83CC261
:103580000CF1180C604523D0DFF830C20CF1300C80
:1035900060451DD0DFF824C20CF1480C604517D0FF
:1035A000DFF818C20CF1600C604511D0DFF80CC2D6
:1035B0000CF1780C60450BD0DFF800C20CF1900CD8
:1035C000604505D0DFF8F4C10CF1A80C604506D1C8
:1035D000D0F800C02CF0010CC0F800C005E0D0F815
:1035E00000C02CF0010CC0F800C02046FEF750FDD2
:1035F0007149206888422CD0A8422AD0B04228D0F5
:10360000B84226D0404524D0484522D0504520D04D
:1036100058451ED0694A90421BD0684A18329042E1
:1036200017D0664A3032904213D0644A48329042F2
:103630000FD0624A603290420BD0604A783290429A
:1036400007D05E4A9032904203D05C4AA832904242
:103650000DD1026822F01E0242F016020260206CB8
:1036600090B12068026842F0080202600CE0026833
:1036700022F00E0242F00A020260206C20B12068A3
:10368000026842F004020260206888424BD0A842DF
:1036900049D0B04247D0B84245D0404543D04845D4
:1036A00041D050453FD058453DD0444A90423AD051
:1036B000424A1832904236D0404A3032904232D09C
:1036C0003E4A483290422ED03C4A603290422AD044
:1036D0003A4A7832904226D0384A9032904222D0EC
:1036E000364AA83290421ED0354A90421BD0344A06
:1036F0001432904217D0324A2832904213D0304AC6
:103700003C3290420FD02E4A503290420BD02C4A7D
:103710006432904207D02A4A7832904203D0284A35
:103720008C3290420DD1206E0268D20303D502681C
:1037300042F480720260E06E18B1026842F4807256
:103740000260206888422CD0A8422AD0B04228D0FB
:10375000B84226D0404524D0484522D0504520D0FC
:1037600058451ED0154988421BD01449183188424B
:1037700017D012493031884213D01049483188425D
:103780000FD00E49603188420BD00C497831884205
:1037900007D00A499031884203D00849A8318842AD
:1037A00004D1016841F001010160AFE6016841F018
:1037B00001010160AAE6000010000240100402406E
:1037C0000854025870B5044600F04CF90546601CD8
:1037D00002D004480078044400F044F9401BA042A1
:1037E000FAD370BD4000002410B54FF48054A042BD
:1037F00003D1FEF773FD0148046010BD8800005836
:1038000010B54FF0B041D1F88820024203D0C1F882
:103810008800FFF7E9FF10BD2DE9F84F00227B4D2E
:1038200003264FF001080F274FF0B04CE6E008FAEE
:1038300002F31C409A46002C7ED00B7903F0030360
:10384000012B01D0022B1BD1D0F80890530006FAAF
:1038500003FB29EA0B09D1F80CB00BFA03FB4BEA86
:10386000090BC0F808B0436823EA0A0391F80490F2
:10387000C9F3001909FA02F949EA0309C0F80490EA
:103880000B79DB439B070ED0D0F80C90530006FA5F
:1038900003FA29EA0A09D1F808A00AFA03FA4AEA5F
:1038A000090AC0F80CA00B7903F00303022B14D112
:1038B000D30800EB8303D3F820A04FEA42794FEA04
:1038C000D96907FA09FB2AEA0B0AD1F810B00BFAFA
:1038D00009FB4BEA0A0BC3F820B0D0F80090530064
:1038E00006FA03FA29EA0A0991F804A00AF0030A81
:1038F0000AFA03FA4AEA090AC0F800A04B6813F46E
:10390000403F7AD0424BD3F8009049F00209C3F807
:1039100000901B6803F00203009322F0030909F1F1
:10392000B049D9F808B493074FEA137A07FA0AF3B3
:103930002BEA030B374B00E05FE0984201D10023F4
:103940002DE0354B984201D1012328E0334B9842BA
:1039500001D1022323E0324B984201D103231EE020
:10396000304B984201D1042319E02F4B984201D1EA
:10397000052314E02D4B984201D106230FE02C4B78
:10398000984201D107230AE02A4B984201D108232B
:1039900005E0294B984201D1092300E00A2303FAEC
:1039A0000AF343EA0B03C9F80834DCF80030A343F8
:1039B000D1F804905FEAC92900D52343CCF8003040
:1039C000DCF80430A343D1F804905FEA892900D5DC
:1039D0002343CCF804306B68A343D1F804905FEA2A
:1039E000893900D523436B602B68A343D1F8049039
:1039F0005FEAC93900D523432B60521C0C6834FAA6
:103A000002F37FF414AFBDE8F88F00008000005887
:103A1000F4440258000002580004025800080258FA
:103A2000000C0258001002580014025800180258E6
:103A3000001C025800200258002402580069084265
:103A400001D00120704700207047002A01D0816119
:103A5000704709048161704701480068000C704795
:103A60000010005C0148806870470000400000249E
:103A70000248816802781144816070474000002448
:103A800010B5032000F09CF801F030F90F490A68E6
:103A9000C2F303230E4AD35C03F01F03D840096826
:103AA00001F00F01515C0B4A01F01F0120FA01F1F6
:103AB0001160094908600F2000F010F808B10120DA
:103AC00010BD00F031F8002010BD0000184402586D
:103AD00026940008500000244C00002470B50446D1
:103AE0000F4D2A78002A0CD04FF47A700D49B0FBA4
:103AF000F2F00968B1FBF0F001F014FD18B10120FB
:103B000070BD012070BD102C07D200222146501E2E
:103B100000F036F86C60002070BD012070BD000020
:103B2000400000244C00002408B50548016841F01D
:103B300002010160006800F00200009008BD000072
:103B4000F444025800280DDB012100F01F029140CF
:103B50004009800000F1E020C0F88011BFF34F8FD2
:103B6000BFF36F8F7047002809DB012100F01F02AF
:103B700091404009800000F1E020C0F8001170473A
:103B8000F0B40D460D4B1B68C3F30223C3F10704C9
:103B9000042C00D90424191D072901D2002300E0B8
:103BA000DB1E012606FA04F1491E294099409E4079
:103BB000761E16403143F0BC04F08FB90CED00E0E6
:103BC00000F00701054A10684FF6FF03184040EA6D
:103BD0000120034908431060704700000CED00E02D
:103BE0000000FA0570B514490A68D243520708D597
:103BF000096801F00701814201D0012070BD002059
:103C000070BD0A6822F0070202430A60FFF72AFF2C
:103C10000446094D4FF47A76083D06E0FFF722FF8F
:103C2000001BB04201D9012070BD2868C043800448
:103C3000F4D4002070BD00000C48025810B501F00B
:103C40000FF805490968054AC1F30211515C01F0FA
:103C50001F01C84010BD00002044025826940008EF
:103C600010B569490A6802F003020968C1F3053119
:103C7000654B1B1D1B68C3F30013634C143424688D
:103C8000C4F3CC0414FB03F300EE103AB8EE400A80
:103C9000002971D09FED5D1A5B4BF7EE000A1033DF
:103CA000F2B39FED5B2A012A7FD0022A7CD001EE7D
:103CB000901A1968F8EE611AC2EE212AC1F30801C0
:103CC00001EE901AF8EE611A40EE011A31EEA00AE8
:103CD00022EE800A1968C1F3462101EE101AB8EEEF
:103CE000411A31EE201AC0EE011ABCEEE11A80ED45
:103CF000001A1968C1F3064101EE101AB8EE411A14
:103D000031EE201AC0EE011ABCEEE11A80ED011A64
:103D10001968C1F3066101EE101AB8EE411A00E00D
:103D200008E071EE200A80EE201ABCEEC10A80ED98
:103D3000020A10BD344A283A1468A4061ED5126837
:103D4000C2F3C104334AE24001EE902AF8EE612A40
:103D500001EE901A1968F8EE611A82EEA12AC1F3F9
:103D6000080101EE901AF8EE611A40EE011A31EEE8
:103D7000A00A22EE000AADE741E016E001EE901A3B
:103D8000DFED252A1968F8EE611A82EEA12AC1F347
:103D9000080101EE901AF8EE611A40EE011A31EEB8
:103DA000A00A22EE000A95E713E001EE901A1968C6
:103DB000F8EE611AC2EE212AC1F3080101EE901A51
:103DC000F8EE611A40EE011A31EEA00A22EE800AE6
:103DD00080E701EE901ADFED112A1968F8EE611AFA
:103DE00082EEA12AC1F3080101EE901AF8EE611AE1
:103DF00040EE011A31EEA00A22EE000A6AE7002125
:103E000001604160816010BD284402580000003903
:103E10000024744A0090D0030024744C20BCBE4B94
:103E200010B569490A6802F003020968C1F3055137
:103E3000654B1B1D1B68C3F30023634C1C342468B3
:103E4000C4F3CC0414FB03F300EE103AB8EE400ABE
:103E5000002971D09FED5D1A5B4BF7EE000A183315
:103E6000F2B39FED5B2A012A7FD0022A7CD001EEBB
:103E7000901A1968F8EE611AC2EE212AC1F30801FE
:103E800001EE901AF8EE611A40EE011A31EEA00A26
:103E900022EE800A1968C1F3462101EE101AB8EE2D
:103EA000411A31EE201AC0EE011ABCEEE11A80ED83
:103EB000001A1968C1F3064101EE101AB8EE411A52
:103EC00031EE201AC0EE011ABCEEE11A80ED011AA3
:103ED0001968C1F3066101EE101AB8EE411A00E04C
:103EE00008E071EE200A80EE201ABCEEC10A80EDD7
:103EF000020A10BD344A283A1468A4061ED5126876
:103F0000C2F3C104334AE24001EE902AF8EE612A7E
:103F100001EE901A1968F8EE611A82EEA12AC1F337
:103F2000080101EE901AF8EE611A40EE011A31EE26
:103F3000A00A22EE000AADE741E016E001EE901A79
:103F4000DFED252A1968F8EE611A82EEA12AC1F385
:103F5000080101EE901AF8EE611A40EE011A31EEF6
:103F6000A00A22EE000A95E713E001EE901A196804
:103F7000F8EE611AC2EE212AC1F3080101EE901A8F
:103F8000F8EE611A40EE011A31EEA00A22EE800A24
:103F900080E701EE901ADFED112A1968F8EE611A38
:103FA00082EEA12AC1F3080101EE901AF8EE611A1F
:103FB00040EE011A31EEA00A22EE000A6AE7002163
:103FC00001604160816010BD284402580000003942
:103FD0000024744A0090D0030024744C20BCBE4BD3
:103FE0002DE9FC5F044600250026F94F2068DFF824
:103FF000E483C043010104F10800019004F12800AA
:1040000000900DD4A06EB8B1B0F5801F19D0B0F5F6
:10401000001F1CD0B0F5401F00D00125EDB12E4689
:104020002088C043C00535D4A06D05282FD2DFE815
:1040300000F01D22282F2F00386840F4003038602F
:10404000ECE70198022102F03BFE0546E6E7009806
:10405000022102F0C7FE0546E0E7D8F80000A16E95
:1040600020F440100843C8F80000D9E7386840F44D
:10407000003038600CE00198002102F021FE054676
:1040800006E00098002102F0ADFE054600E00125A3
:1040900065B12E462088C043800518D4E06D802885
:1040A00031D00CDC20B340280ED126E0D8F8000037
:1040B000A16D20F007000843C8F80000EAE7C02817
:1040C00003D0B0F5807F00D0012515B32E4620889F
:1040D000DFF80493C04340052DD4D4F8A800B0F510
:1040E000800F43D01EDCA8B3B0F5001F20D137E00D
:1040F000386840F400303860E7E70198002102F0AA
:10410000DFFD0546E1E70098002102F06BFE054661
:10411000DBE7D8F80000E16D20F4E0700843C8F850
:104120000000D4E7B0F5C00F03D0B0F5000F00D009
:1041300001250DB32E462088C04300052FD4D4F8A6
:10414000AC00B0F1007F54D020DCE8B3B0F1807F48
:1041500022D148E0FFE7386840F400303860E8E7F3
:104160000198002102F0ACFD0546E2E7009800212D
:1041700002F038FE0546DCE7D9F80000D4F8A810B4
:1041800020F460000843C9F80000D4E7B0F1407F94
:1041900003D0B0F1806F00D0012585B32E46206892
:1041A000C04380010AD4E06C30B1102832D02028FE
:1041B00036D0302800D001258DB32E462088C0434C
:1041C000C00446D4206E00E008E0B0F5005F5CD08B
:1041D00036DCA0B3B0F5805F38D150E0386840F4E9
:1041E00000303860D9E70198002102F069FD0546EA
:1041F000D3E70098002102F0F5FD0546CDE7FFE783
:10420000D9F80000D4F8AC1020F0E0600843C9F8F9
:104210000000C4E7386840F400303860CCE705E0BF
:104220000198022102F04CFD0546C5E76948001FD0
:104230000168E26C21F0300111430160BEE719E032
:10424000B0F5405F03D0B0F5804F00D0012515B325
:104250002E462088C04380042FD4606EB0F5403FC6
:1042600029D021DC38B3B0F5803F38D0B0F5003F1D
:1042700020D13AE0386840F400303860E7E7019830
:10428000002102F01DFD0546E1E70098002102F043
:10429000A9FD0546DBE7D8F80000216E20F4E040D8
:1042A0000843C8F80000D4E7B0F5802F03D0B0F57C
:1042B000A02F00D00125F5B12E462088C043400430
:1042C0002BD4D4F8B000B0F1405F24D01CDC10B384
:1042D000B0F1805F4ED0B0F1005F1BD151E001988A
:1042E000012102F0EDFC0546E5E70098012102F00E
:1042F00079FD0546DFE7D8F80000616E20F4E02084
:104300000843C8F80000D8E7B0F1804F03D0B0F1FF
:10431000A04F00D001259DB32E462088C043000445
:104320000AD4206F30B1B0F1805F3CD0B0F1005FB3
:104330003ED00125ADB32E462068C043C0010AD44B
:10434000A06C30B101284DD0022850D0032800D0F5
:1043500001253DB32E462068DFF880B0C0434002FF
:1043600061D41F48016841F480710160FFF77AFB56
:10437000824652E00198012102F0A2FC0546CAE7FC
:1043800005E00098012102F02DFD0546C3E7D9F8AC
:104390000000D4F8B01020F0E0400843C9F8000055
:1043A000BBE70BE029E0386840F400303860C1E733
:1043B0000198012102F084FC0546BBE7D8F8000013
:1043C000216F20F040500843C8F80000B4E7000017
:1043D0002C44025850440258584402581044025881
:1043E00000480258386840F400303860B1E701985E
:1043F000022102F065FC0546ABE7FE480168A26CAD
:1044000021F0030111430160A5E7FFF72BFBA0EBAF
:104410000A00642801D9032503E0F7480068C005B5
:10442000F3D53DB12E462078DFF8D0A3C043C007B6
:1044300055D065E0F1481C300068B4F8B41000F4C1
:10444000407001F4407188420DD0EC481C30016886
:1044500021F44071026842F480320260026822F462
:10446000803202600160D4F8B400B0F5807F12D1D0
:10447000FFF7F8FA824609E0FFF7F4FAA0EB0A0129
:1044800041F28830814201D9032504E0DB481C3029
:1044900000688007F0D50DB12E46C4E7D4F8B4000B
:1044A000C0F3012103290FD0DBF8000020F47C5079
:1044B000CBF80000D1481C300168B4F8B420C2F336
:1044C0000B0211430160AEE7DBF80010CC4A21F487
:1044D0007C51104041EA1010CBF80000EAE7E06F91
:1044E00018280BD005DC48B1082815D0102804D1B5
:1044F00018E0202802D0282800D00125C5B12E467A
:104500002078C04380072BD4A06F062825D2DFE88F
:1045100000F025181E2525250198012102F0D0FB69
:104520000546EBE70098012102F05CFC0546E5E753
:10453000DAF80000E16F20F038000843CAF8000004
:10454000DEE70198012102F0BBFB054606E000987A
:10455000012102F047FC054600E001256DB12E4621
:104560002078C043400720D4D4F89400062819D2FC
:10457000DFE800F0190C12191919DAF80000A16F20
:1045800020F007000843CAF80000E9E7019801217C
:1045900002F096FB054606E00098012102F022FC9D
:1045A000054600E0012595B12E462078C0438006DF
:1045B00020D4D4F89000B0F1405F19D011DCB8B12C
:1045C000B0F1805F28D0B0F1005F10D12AE0D9F8B7
:1045D0000000D4F8941020F007000843C9F8000048
:1045E000E3E7B0F1804F03D0B0F1A04F00D0012538
:1045F000F5B12E462078C04340062CD4D4F89C0058
:10460000B0F5406F25D01DDC18B3B0F5806F34D005
:10461000B0F5006F1CD136E00198002102F050FB8C
:104620000546E5E70098022102F0DCFB0546DFE7DE
:10463000DAF80000D4F8901020F0E0400843CAF8FF
:104640000000D7E7B0F5805F03D0B0F5A05F00D0E1
:104650000125F5B12E462078C04300062CD4D4F8AD
:10466000A000B0F5C04F25D01DDC18B3B0F5005F39
:104670002CD0B0F5804F1CD12EE00198002102F023
:104680001FFB0546E5E70098022102F0ABFB05465B
:10469000DFE7D9F80000D4F89C1020F4E05008437C
:1046A000C9F80000D7E7B0F5004F03D0B0F5204FB0
:1046B00000D00125B5B12E462078C04300072AD48A
:1046C000D4F88400B0F5805F16D01BE0019800217B
:1046D00002F0F6FA0546EDE70098022102F082FBAF
:1046E0000546E7E7D9F80000D4F8A01020F46040B0
:1046F0000843C9F80000DFE70098022102F072FBCE
:1047000000B10126DAF80000D4F8841020F44050FB
:104710000843CAF800002078C043C00613D4D4F878
:104720009800B0F5807F05D10098022102F05AFB75
:1047300000B10126D9F80000D4F8981020F4407098
:104740000843C9F800002068C04300030BD4D4F824
:10475000A400E8B3B0F5803F7DD0B0F5003F00D0B5
:104760000125B5B32E462068C04340030DD4D4F8CC
:104770008800B0F5801F70D0B0F5001F6ED0B0F586
:10478000401F00D00125EDB32E462068C043C00372
:1047900007D4206DB8B3B0F5803F7CD001259DB320
:1047A0002E462068C043800005D40098022102F004
:1047B00019FB00B101262068C043800311D4D4F84E
:1047C000800060B1B0F5807F66D0B0F5007F01E079
:1047D00070E07BE003D0B0F5407F00D00125DDB371
:1047E0002E462068C043C00213D4D8F8000020F041
:1047F00000400AE04C440258004802585444025811
:10480000FFFCFF0F77E080E08AE0616F0843C8F8A3
:1048100000002068C043C00008D4DBF80000D4F8D2
:10482000B81020F480400843CBF800002068C04353
:10483000800207D4D8F80000E16E20F080700843B1
:10484000C8F800002068C043400011D4DBF8000025
:1048500020F4004003E033E06FE041E045E0CBF8B6
:104860000000DBF80000D4F8BC100843CBF80000CF
:104870002068C04306D45A480168626D21F0405157
:10488000114301602068C04300020BD4DAF8000035
:1048900020F4400001E03DE04AE0D4F88C100843E9
:1048A000CAF8000020790025C04300F00100284329
:1048B0004DD052E00198002102F002FA054650E77F
:1048C0000098022102F08EFA05464AE7D9F8000066
:1048D000D4F8A41020F440300843C9F8000042E79F
:1048E000386840F4003038604DE70098012102F04C
:1048F00079FA054647E7DAF80000D4F8881020F482
:1049000040100843CAF800003FE7386840F4003020
:10491000386044E70198022102F0D2F905463EE7EB
:104920002F480168226D21F480311143016038E77E
:10493000386840F40030386051E7DAF80000D4F805
:10494000801020F440700843CAF8000049E701983D
:10495000002102F0B5F900B106462079C04300F00D
:104960000200284305D10198012102F0A9F900B104
:1049700006462079C04300F00400284305D1019881
:10498000022102F09DF900B106462079C04300F0F3
:104990000800284305D10098002102F023FA00B155
:1049A00006462079C04300F01000284305D1009846
:1049B000012102F017FA00B106462079C04300F049
:1049C0002000054305D10098022102F00BFA00B146
:1049D000064616B10120BDE8FC9F0020FBE7000061
:1049E0004C4402582DE9F05F04460D46002C17D0C8
:1049F000DFF84C82D8F8000000F00F00A84211D276
:104A0000D8F8000020F00F002843C8F80000D8F8BC
:104A1000000000F00F00A84204D00120BDE8F09F84
:104A20000120FBE72078874E40070AD520693168CE
:104A300001F07001884204D9316821F0700101430E
:104A400031602078804F00070AD56069396801F02D
:104A50007001884204D9396821F07001014339603E
:104A60002078C0060AD5A069396801F4E06188425F
:104A700004D9396821F4E061014339602078DFF816
:104A8000CC9180060DD5E069D9F8001001F07001D5
:104A9000884206D9D9F8001021F070010143C9F805
:104AA0000010207880070AD5E068316801F00F0116
:104AB000884204D9316821F00F0101433160207828
:104AC000C00743D03068A16820F4706008433060AC
:104AD0005C4960681839022808D003280BD00128E7
:104AE0000ED00968490710D4012097E709688903A7
:104AF0000BD4012092E70968890106D401208DE7D3
:104B00000968C90501D4012088E7DFF838A1AAF1B6
:104B1000080ADAF8001021F007010143CAF8001072
:104B2000FEF7A0FF834609E0FEF79CFFA0EB0B0118
:104B300041F28830814201D903206FE7DAF80000A2
:104B4000616800F03800B0EBC10FEDD1207880072C
:104B50000AD5E068316801F00F01884204D231685B
:104B600021F00F0101433160D8F8000000F00F0080
:104B7000A8420ED9D8F8000020F00F002843C8F84A
:104B80000000D8F8000000F00F00A84201D001207A
:104B900044E7207840070AD52069316801F07001A8
:104BA000884204D2316821F07001014331602078DD
:104BB00000070AD56069396801F07001884204D2A3
:104BC000396821F07001014339602078C0060AD5A8
:104BD000A069396801F4E061884204D2396821F49F
:104BE000E06101433960207880060DD5E069D9F88D
:104BF000001001F07001884206D2D9F8001021F0AF
:104C000070010143C9F8001000F070F83168C1F379
:104C100003220F498A5C02F01F02D040326802F082
:104C20000F02895C0B4A01F01F0120FA01F11160AB
:104C30000949086009480068BDE8F05FFEF74EBF0B
:104C400000200052184402581C44025820440258C4
:104C500026940008500000244C0000244400002446
:104C600000B500F043F80B490A68C2F303230A4A6F
:104C7000D35C03F01F03D840096801F00F01515CB9
:104C8000064A01F01F0120FA01F11160044A106088
:104C9000084600BD1844025826940008500000241D
:104CA0004C00002400B5FFF7DBFF05490968054A01
:104CB000C1F30211515C01F01F01C84000BD0000AA
:104CC0001C4402582694000800B5FFF7C9FF0549A7
:104CD0000968054AC1F30221515C01F01F01C84077
:104CE00000BD00001C4402582694000830B56448FA
:104CF0000068654C10F03801624808D0021108299C
:104D00000DD010290DD018290DD0104630BD2168C6
:104D10008906FBD52168C1F3C101C84030BD1046EA
:104D200030BD5A4830BD564918310A6802F00302B6
:104D30000968C1F30511524B1C331B6803F00103D2
:104D40004F4D24352D68C5F3CC0515FB03F300EE5C
:104D5000103AB8EE400A002977D0DFED4D0A484BF3
:104D6000B7EE001A20333AB39FED4A2A012A58D0F1
:104D7000022A6CD001EE901A1868F8EE611AC2EEA1
:104D8000212AC0F3080001EE900AF8EE611A40EE05
:104D9000201A31EE810A22EE800A1868C0F34620FC
:104DA000401C00EE900AF8EE600A80EE201ABCEE7D
:104DB000C10A10EE100A30BD226892061BD5226887
:104DC000C2F3C102D04001EE900A1868F8EE612AE1
:104DD00001EE901AF8EE611A82EEA12AC0F30800E3
:104DE00001EE900AF8EE611A40EE201A31EE810AC7
:104DF00022EE000AD1E701EE901ADFED272A1868AB
:104E0000F8EE611A82EEA12AC0F3080001EE900AC2
:104E1000F8EE611A40EE201A31EE810A22EE000A05
:104E2000BBE701EE901A1868F8EE611AC2EE212A6B
:104E3000C0F3080001EE900AF8EE611A40EE201A65
:104E400031EE810A22EE800AA7E716E0FFE701EEC5
:104E5000901ADFED122A1868F8EE611A82EEA12A84
:104E6000C0F3080001EE900AF8EE611A40EE201A35
:104E700031EE810A22EE000A8FE7002030BD0000EB
:104E8000104402580090D0030044025840787D013D
:104E9000000000390024744A0024744C20BCBE4B2E
:104EA0002DE9F05F0446002C10D02078DFF8F8835D
:104EB000FE4EFF4DC0075DD0D8F8000000F038006E
:104EC000316810281FD0182803D006E00120BDE863
:104ED000F09F01F00300022815D06068B0F5803F14
:104EE00018D0E0B1B0F5A02F22D0286820F480308F
:104EF0002860286820F480202860606860B3FEF78E
:104F0000B1FD074624E02868800333D5606810BBF4
:104F10000120DCE7286840F480302860EDE728684D
:104F200020F480302860286820F480202860E4E79E
:104F3000286840F480202860286840F48030286089
:104F4000DBE7FEF78FFDC01B642801D90320BEE715
:104F500028688003F5D50DE0FEF784FD074606E0DE
:104F6000FEF780FDC01B642801D90320AFE7286845
:104F70008003F5D4207841F2030ACE4F80073DD557
:104F8000D8F8000000F03800316870B1182801D15D
:104F900088070AD0E06890B3296821F0190101431D
:104FA0002960FEF75FFD814641E02868400701D592
:104FB000E06848B12868E16820F0190008432860DB
:104FC000FEF750FD814609E0012080E7FEF74AFD2B
:104FD000A0EB0900022801D9032078E728684007E0
:104FE000F4D5FEF739FD504511D82069402807D087
:104FF000396821F47C3141EA003038604AE036E01B
:10500000386820F47C3040F40030386042E0386882
:10501000217C20F0FE4040EA016038603AE0FEF773
:1050200021FDA0EB0900022801D903204FE72868E1
:105030004007F4D5FEF710FD504510D820694028F0
:1050400006D0396821F47C3141EA0030386021E033
:10505000386820F47C3040F4003038601AE038685A
:10506000217C20F0FE4040EA0160386012E02868B0
:1050700020F001002860FEF7F5FC814607E0FEF70E
:10508000F1FCA0EB0900022801D903201FE72868E2
:105090004007F4D42078C0062FD5D8F8000000F0DF
:1050A00038003168DFF800B20828ABF1040B0FD0EC
:1050B000182803D101F00300012809D0E06978B372
:1050C000286840F080002860FEF7CCFC814630E084
:1050D0002868C00504D5E069802801D00120F6E6E3
:1050E000FEF7BAFC504510D8206A202806D039684F
:1050F00021F0F84141EA806038604FE0386820F0E4
:10510000F84040F08040386048E0DBF8000094F858
:10511000201020F07C5040EA0160CBF800003DE018
:105120002AE0FEF79FFCA0EB0900022801D903202A
:10513000CDE62868C005F4D5FEF78EFC504510D8A2
:10514000206A202806D0396821F0F84141EA8060C1
:10515000386023E0386820F0F84040F08040386044
:105160001CE0DBF8000094F8201020F07C5040EAAE
:105170000160CBF8000011E0286820F08000286072
:10518000FEF770FC074606E0FEF76CFCC01B022829
:1051900001D903209BE62868C005F5D420780007D4
:1051A00030D5DFF80891606909F14C09A8B1D9F848
:1051B000000040F00100C9F80000FEF753FC07466C
:1051C00006E0FEF74FFCC01B022801D903207EE653
:1051D000D9F800008007F4D514E0D9F8000020F0D9
:1051E0000100C9F80000FEF73DFC074606E0FEF7A7
:1051F00039FCC01B022801D9032068E6D9F8000059
:105200008007F4D42078800626D5A06990B128685C
:1052100040F480502860FEF725FC074606E0FEF7C4
:1052200021FCC01B022801D9032050E62868800415
:10523000F5D511E0286820F480502860FEF712FCB4
:10524000074606E0FEF70EFCC01B022801D903202A
:105250003DE628688004F5D42078400768D5164FCD
:10526000386840F480703860FEF7FCFB814607E048
:10527000FEF7F8FBA0EB0900642801D9032026E61D
:105280003868C005F4D5094FA068483701281DD0FB
:1052900008B3052828D0386820F001003860386845
:1052A00020F00400386009E01044025828440258F5
:1052B000004402580444025800480258A06841F2D1
:1052C000883A30B3FEF7CEFB81461EE0386840F0E6
:1052D00001003860E7E7386820F00100386038687E
:1052E00020F004003860DEE7386840F004003860E1
:1052F000386840F001003860D5E7FEF7B3FBA0EB5B
:105300000900504501D90320E1E538688007F4D54C
:105310000EE0FEF7A7FB814607E0FEF7A3FBA0EB3C
:105320000900504501D90320D1E538688007F4D43D
:10533000616AE1B3D8F800004FF6F87BDFF8E0A12E
:10534000C0F3C20003280AF10409AAF104087DD0C1
:10535000022907D0286820F080702860FEF782FBC1
:1053600004468BE0286820F080702860FEF77AFB06
:10537000074606E0FEF776FBC01B022801D9032092
:10538000A5E528688001F5D4306840F2F331884300
:10539000E16A40EA0110A16A08433060208E4FF6AE
:1053A000FF72616B401E491EC0F3080000E0B5E0CB
:1053B00002EA41210843218F4FF4FE02491E02EA0E
:1053C0000141084394F83C10491E120202EA0161AF
:1053D0000843CAF80000D8F8000020F00100C8F81F
:1053E0000000D9F80000A16C20EA0B0040EAC100DF
:1053F000C9F80000D8F80000216C20F00C00084328
:10540000C8F80000D8F80000616C20F002000843E2
:10541000C8F80000D8F8000040F48030C8F8000058
:10542000D8F8000040F40030C8F80000D8F80000B8
:1054300040F48020C8F80000D8F8000040F00100D7
:10544000C8F80000286840F0807000E01AE028608A
:10545000FEF708FB044606E0FEF704FB001B0228EB
:1054600001D9032033E528688001F5D556E0FEF721
:10547000F9FA001B022801D9032028E528688001D9
:10548000F5D44BE03268DAF80000012921D0A36A94
:1054900002F0030199421CD1E16AC2F30512914264
:1054A00017D1216BC0F30802491E8A4211D1616BEA
:1054B000C0F34622491E91420BD1A16BC0F30642B4
:1054C000491E914205D1E16BC0F30660491E81423D
:1054D00001D00120FBE4D9F80000C0F3CC00A16C9E
:1054E00081421BD0D8F8000020F00100C8F800006D
:1054F000FEF7B8FA0546FEF7B5FAA842FBD0D9F890
:105500000000A16C20EA0B0040EAC100C9F80000CD
:10551000D8F8000040F00100C8F800000020D6E4F0
:105520003044025810B5401EB0F1807F01D30120F5
:1055300010BD4FF0E02460610F21601702F0CDFC38
:105540000020A06107202061002010BD7047704737
:105550007047000030B590F83C20012A3AD0012273
:1055600080F83C20CA6800248B6822F440721A43F9
:105570004B6822F480621A430B6822F400621A43DB
:105580000B6922F480521A434B6922F400521A43E9
:105590008B6A22F480421A430B8B22F4702242EA77
:1055A00003420D4D0368AB4202D00C4DAB420CD10F
:1055B0008D8C22F4700242EA0552CD6922F080728D
:1055C0002A43096A22F000720A435A6480F83C4078
:1055D000002030BD022030BD000001400004014029
:1055E000F0B590F83C20012A3AD0012680F83C60C2
:1055F000022280F83D2003685A689C68194FDFF842
:1056000068C0BB4201D0634503D122F470054A68EB
:105610002A4322F070020D6815435D600268BA42A9
:1056200013D0B2F1804F10D0104B9A420DD0104BD6
:105630009A420AD00F4B9A4207D0624505D00E4BD2
:105640009A4202D00D4B9A4204D124F0800389681B
:10565000194391603C304670002101700020F0BD7C
:105660000220F0BD000001400004014000040040A1
:1056700000080040000C00400018004000400140BD
:1056800010B50446002C03D094F83D0010B107E09B
:10569000012010BD002084F83C00204600F018F8DE
:1056A000022084F83D002068211D01F0F9FC012052
:1056B0003D34E0726070A070E07020716071A07184
:1056C000E07120726072A0722070002010BD000096
:1056D00008B500681149884209D11148016841F0B4
:1056E00001010160006800F00100009008BD0D4953
:1056F0008842FBD10A480838016841F01001016076
:10570000006800F010000090002236201146FEF7DD
:1057100037FABDE808403620FEF725BA0000014000
:10572000F04402580010004090F83D10012901D0CB
:1057300001207047022180F83D100168CA6842F0DC
:105740000102CA6000681549884214D0B0F1804F48
:1057500011D0134988420ED0124988420BD0124909
:10576000884208D01149884205D01149884202D0A8
:10577000104988420CD181680F4A114006290BD08C
:10578000B1F5803F08D0016841F00101016003E0FC
:10579000016841F0010101600020704700000140F4
:1057A0000004004000080040000C004000040140DC
:1057B00000180040004001400700010070B5044699
:1057C000002594F83C00012815D0012684F83C609F
:1057D000022084F83D0020688268394B1A4022F488
:1057E0007F4282600868702802462ED010DC10F0DC
:1057F0000F0F03D022E04FF0020070BD4FEA2010DF
:1058000007281BD2DFE800F0575757574D394300A0
:10581000B0F1101F4FD009DCB0F5805F0FD0B0F5AC
:10582000005F1ED0B0F5801F08D144E0A0F58010C5
:10583000203840D010283ED020283CD001253C34D0
:10584000667000202070284670BDCB682068D1E9C2
:10585000012101F096FC2068816841F077018160A8
:10586000EDE7CB682068D1E9012101F08AFC2068CE
:10587000816841F480418160E1E7CA684968206835
:1058800001F022FE2068502101F086FCD7E7CA68AB
:105890004968206801F029FE2068602101F07CFC45
:1058A000CDE7CA684968206801F00EFE20684021F3
:1058B00001F072FCC3E72068114601F06DFCBEE701
:1058C00088FFCEFF2DE9F04104460D46002C03D0A1
:1058D00094F83D0018B108E00120BDE8F0810020F7
:1058E00084F83C00204600F049F8022084F83D008E
:1058F00020688168204A114081602068211D01F0E4
:10590000CFFB293454F8290C81688269066A2B6818
:105910000B4340F203318A43AF69A96842EA072288
:10592000114340F60C4291434FF2F0029143EF696C
:10593000EA6841EA07210A4329692F6A090141EA15
:105940000731114326F0220222F088066A686D6949
:1059500046EA05152A43836054F8290C816154F8FE
:10596000290C02620120E0776075A075E07620774F
:1059700020750020B1E70000F8BFFEFF70B586B0CB
:105980000446142101A8FAF7DFFD224A0025204E23
:105990002168083A1F4B02241F48B1421AD11968E6
:1059A00041F002011960196801F0020100911168CB
:1059B00041F001011160116801F001010091C02165
:1059C0000191029403950495059401A9FDF724FF24
:1059D00006B070BD114EB142FAD1196841F008010C
:1059E0001960196801F008010091116841F0010186
:1059F0001160116801F001010091032101910294ED
:105A000003950495059401A9FDF706FFE0E7000062
:105A100000040040E844025800000258000C004016
:105A200070B5044614F83E0F6278A379E5793E3CE0
:105A30000226002904D004290DD001281CD115E02C
:105A4000012801D1012B01D0012070BD84F83E60F6
:105A500084F8446018E0012A01D1012D01D0012011
:105A600070BD84F83F6084F845600DE0012A03D1E1
:105A7000012B01D1012D01D0012070BD04F83E6F32
:105A80006670A671E6713E3C91B1042916D020687B
:105A90000122002101F068FB20680122042101F0AD
:105AA00063FB2068016841F001010160002070BDC6
:105AB00020680122002101F057FBF2E72068012253
:105AC000042101F051FBECE770472DE9F041044659
:105AD0002068C66805694FF00007A90714D5B1070B
